{
  "_format": "hh-sol-artifact-1",
  "contractName": "CircleDeployer",
  "sourceName": "contracts/CircleDeployer.sol",
  "abi": [
    {
      "inputs": [
        {
          "internalType": "address",
          "name": "_factoryAddress",
          "type": "address"
        },
        {
          "internalType": "address",
          "name": "_btcOracleAddress",
          "type": "address"
        },
        {
          "internalType": "address",
          "name": "_treasuryAddress",
          "type": "address"
        }
      ],
      "stateMutability": "nonpayable",
      "type": "constructor"
    },
    {
      "inputs": [
        {
          "internalType": "address",
          "name": "owner",
          "type": "address"
        }
      ],
      "name": "OwnableInvalidOwner",
      "type": "error"
    },
    {
      "inputs": [
        {
          "internalType": "address",
          "name": "account",
          "type": "address"
        }
      ],
      "name": "OwnableUnauthorizedAccount",
      "type": "error"
    },
    {
      "anonymous": false,
      "inputs": [
        {
          "indexed": true,
          "internalType": "address",
          "name": "previousOwner",
          "type": "address"
        },
        {
          "indexed": true,
          "internalType": "address",
          "name": "newOwner",
          "type": "address"
        }
      ],
      "name": "OwnershipTransferred",
      "type": "event"
    },
    {
      "inputs": [],
      "name": "btcOracleAddress",
      "outputs": [
        {
          "internalType": "address",
          "name": "",
          "type": "address"
        }
      ],
      "stateMutability": "view",
      "type": "function"
    },
    {
      "inputs": [
        {
          "internalType": "string",
          "name": "name",
          "type": "string"
        },
        {
          "internalType": "uint256",
          "name": "goal",
          "type": "uint256"
        },
        {
          "internalType": "uint256",
          "name": "contributionAmount",
          "type": "uint256"
        },
        {
          "internalType": "uint256",
          "name": "contributionPeriod",
          "type": "uint256"
        },
        {
          "internalType": "address",
          "name": "circleOwner",
          "type": "address"
        },
        {
          "internalType": "bool",
          "name": "isPremium",
          "type": "bool"
        }
      ],
      "name": "deployAndRegisterCircle",
      "outputs": [],
      "stateMutability": "payable",
      "type": "function"
    },
    {
      "inputs": [],
      "name": "factoryAddress",
      "outputs": [
        {
          "internalType": "address",
          "name": "",
          "type": "address"
        }
      ],
      "stateMutability": "view",
      "type": "function"
    },
    {
      "inputs": [],
      "name": "owner",
      "outputs": [
        {
          "internalType": "address",
          "name": "",
          "type": "address"
        }
      ],
      "stateMutability": "view",
      "type": "function"
    },
    {
      "inputs": [],
      "name": "renounceOwnership",
      "outputs": [],
      "stateMutability": "nonpayable",
      "type": "function"
    },
    {
      "inputs": [
        {
          "internalType": "address",
          "name": "newOwner",
          "type": "address"
        }
      ],
      "name": "transferOwnership",
      "outputs": [],
      "stateMutability": "nonpayable",
      "type": "function"
    },
    {
      "inputs": [],
      "name": "treasuryAddress",
      "outputs": [
        {
          "internalType": "address",
          "name": "",
          "type": "address"
        }
      ],
      "stateMutability": "view",
      "type": "function"
    }
  ],
  "bytecode": "0x60e060405234801561001057600080fd5b50604051614a20380380614a2083398101604081905261002f916100e8565b338061005557604051631e4fbdf760e01b81526000600482015260240160405180910390fd5b61005e8161007c565b506001600160a01b0392831660805290821660a0521660c05261012b565b600080546001600160a01b038381166001600160a01b0319831681178455604051919092169283917f8be0079c531659141344cd1fd0a4f28419497f9722a3daafe3b4186f6b6457e09190a35050565b80516001600160a01b03811681146100e357600080fd5b919050565b6000806000606084860312156100fd57600080fd5b610106846100cc565b9250610114602085016100cc565b9150610122604085016100cc565b90509250925092565b60805160a05160c05161488f6101916000396000818161016b015261023e015260008181609201526101fc0152600081816101350152818161021d015281816102a101528181610339015281816105bf0152818161063c01526106c1015261488f6000f3fe608060405260043610620000795760003560e01c80638da5cb5b11620000545780638da5cb5b1462000101578063966dae0e1462000121578063c5f956af1462000157578063f2fde38b146200018d57600080fd5b8063532a82ee146200007e578063715018a614620000d05780638661652914620000ea575b600080fd5b3480156200008b57600080fd5b50620000b47f000000000000000000000000000000000000000000000000000000000000000081565b6040516001600160a01b03909116815260200160405180910390f35b348015620000dd57600080fd5b50620000e8620001b2565b005b620000e8620000fb3660046200086a565b620001ca565b3480156200010e57600080fd5b506000546001600160a01b0316620000b4565b3480156200012e57600080fd5b50620000b47f000000000000000000000000000000000000000000000000000000000000000081565b3480156200016457600080fd5b50620000b47f000000000000000000000000000000000000000000000000000000000000000081565b3480156200019a57600080fd5b50620000e8620001ac36600462000966565b62000735565b620001bc6200077d565b620001c86000620007ac565b565b620001d46200077d565b600086604051602001620001e99190620009b1565b60405160208183030381529060405285857f00000000000000000000000000000000000000000000000000000000000000007f00000000000000000000000000000000000000000000000000000000000000007f00000000000000000000000000000000000000000000000000000000000000006040516200026b90620007fc565b6200027c9695949392919062000a0c565b604051809103906000f08015801562000299573d6000803e3d6000fd5b5090506000837f0000000000000000000000000000000000000000000000000000000000000000604051620002ce906200080a565b6001600160a01b03928316815291166020820152604001604051809103906000f08015801562000302573d6000803e3d6000fd5b5090506000604051620003159062000818565b604051809103906000f08015801562000332573d6000803e3d6000fd5b50905060007f00000000000000000000000000000000000000000000000000000000000000006001600160a01b031663a537ee41348c8c8887898d8d6040518963ffffffff1660e01b815260040162000392979695949392919062000a56565b60206040518083038185885af1158015620003b1573d6000803e3d6000fd5b50505050506040513d601f19601f82011682018060405250810190620003d8919062000aaa565b60405163d1a50ff760e01b8152600481018290529091506001600160a01b0385169063d1a50ff790602401600060405180830381600087803b1580156200041e57600080fd5b505af115801562000433573d6000803e3d6000fd5b505060405163760f1cb760e11b81526001600160a01b0389811660048301528716925063ec1e396e9150602401600060405180830381600087803b1580156200047b57600080fd5b505af115801562000490573d6000803e3d6000fd5b5050604051630e8ca5ab60e11b81526001600160a01b03858116600483015287169250631d194b569150602401600060405180830381600087803b158015620004d857600080fd5b505af1158015620004ed573d6000803e3d6000fd5b505060405163d1a50ff760e01b8152600481018490526001600160a01b038516925063d1a50ff79150602401600060405180830381600087803b1580156200053457600080fd5b505af115801562000549573d6000803e3d6000fd5b5050604051630e830e4960e01b81526001600160a01b03878116600483015285169250630e830e499150602401600060405180830381600087803b1580156200059157600080fd5b505af1158015620005a6573d6000803e3d6000fd5b505060405163f2fde38b60e01b81526001600160a01b037f0000000000000000000000000000000000000000000000000000000000000000811660048301528716925063f2fde38b9150602401600060405180830381600087803b1580156200060e57600080fd5b505af115801562000623573d6000803e3d6000fd5b505060405163f2fde38b60e01b81526001600160a01b037f0000000000000000000000000000000000000000000000000000000000000000811660048301528516925063f2fde38b9150602401600060405180830381600087803b1580156200068b57600080fd5b505af1158015620006a0573d6000803e3d6000fd5b505060405163485cc95560e01b81526001600160a01b0389811660048301527f0000000000000000000000000000000000000000000000000000000000000000811660248301528616925063485cc9559150604401600060405180830381600087803b1580156200071057600080fd5b505af115801562000725573d6000803e3d6000fd5b5050505050505050505050505050565b6200073f6200077d565b6001600160a01b0381166200076f57604051631e4fbdf760e01b8152600060048201526024015b60405180910390fd5b6200077a81620007ac565b50565b6000546001600160a01b03163314620001c85760405163118cdaa760e01b815233600482015260240162000766565b600080546001600160a01b038381166001600160a01b0319831681178455604051919092169283917f8be0079c531659141344cd1fd0a4f28419497f9722a3daafe3b4186f6b6457e09190a35050565b611fe38062000ac583390190565b6110708062002aa883390190565b610d428062003b1883390190565b634e487b7160e01b600052604160045260246000fd5b80356001600160a01b03811681146200085457600080fd5b919050565b803580151581146200085457600080fd5b60008060008060008060c087890312156200088457600080fd5b863567ffffffffffffffff808211156200089d57600080fd5b818901915089601f830112620008b257600080fd5b813581811115620008c757620008c762000826565b604051601f8201601f19908116603f01168101908382118183101715620008f257620008f262000826565b816040528281528c60208487010111156200090c57600080fd5b82602086016020830137600060208483010152809a5050505050506020870135945060408701359350606087013592506200094a608088016200083c565b91506200095a60a0880162000859565b90509295509295509295565b6000602082840312156200097957600080fd5b62000984826200083c565b9392505050565b60005b83811015620009a85781810151838201526020016200098e565b50506000910152565b60008251620009c58184602087016200098b565b6620456e67696e6560c81b920191825250600701919050565b60008151808452620009f88160208601602086016200098b565b601f01601f19169290920160200192915050565b60c08152600062000a2160c0830189620009de565b60208301979097525060408101949094526001600160a01b03928316606085015290821660808401521660a090910152919050565b60e08152600062000a6b60e083018a620009de565b6020830198909852506001600160a01b0395861660408201529385166060850152918416608084015290921660a082015290151560c090910152919050565b60006020828403121562000abd57600080fd5b505191905056fe60a0604052655af3107a4000600b553480156200001b57600080fd5b5060405162001fe338038062001fe38339810160408190526200003e916200014c565b33806200006557604051631e4fbdf760e01b81526000600482015260240160405180910390fd5b6200007081620000c9565b50600180556002620000838782620002fa565b50600394909455600492909255600580546001600160a01b039283166001600160a01b031991821617909155918116608052600a805491909316911617905550620003c6565b600080546001600160a01b038381166001600160a01b0319831681178455604051919092169283917f8be0079c531659141344cd1fd0a4f28419497f9722a3daafe3b4186f6b6457e09190a35050565b634e487b7160e01b600052604160045260246000fd5b80516001600160a01b03811681146200014757600080fd5b919050565b60008060008060008060c087890312156200016657600080fd5b86516001600160401b03808211156200017e57600080fd5b818901915089601f8301126200019357600080fd5b815181811115620001a857620001a862000119565b604051601f8201601f19908116603f01168101908382118183101715620001d357620001d362000119565b81604052828152602093508c84848701011115620001f057600080fd5b600091505b82821015620002145784820184015181830185015290830190620001f5565b6000848483010152809a505050508089015196505050604087015193506200023f606088016200012f565b92506200024f608088016200012f565b91506200025f60a088016200012f565b90509295509295509295565b600181811c908216806200028057607f821691505b602082108103620002a157634e487b7160e01b600052602260045260246000fd5b50919050565b601f821115620002f557600081815260208120601f850160051c81016020861015620002d05750805b601f850160051c820191505b81811015620002f157828155600101620002dc565b5050505b505050565b81516001600160401b0381111562000316576200031662000119565b6200032e816200032784546200026b565b84620002a7565b602080601f8311600181146200036657600084156200034d5750858301515b600019600386901b1c1916600185901b178555620002f1565b600085815260208120601f198616915b82811015620003975788860151825594840194600190910190840162000376565b5085821015620003b65787850151600019600388901b60f8161c191681555b5050505050600190811b01905550565b608051611bf3620003f06000396000818161056601528181610bb701526116e70152611bf36000f3fe6080604052600436106102045760003560e01c80638ba0079311610118578063d1a50ff7116100a0578063ec1e396e1161006f578063ec1e396e1461061c578063f0f442601461063c578063f2fde38b1461065c578063f85701701461067c578063f96dae0a1461069c57600080fd5b8063d1a50ff7146105a8578063d3dd2bdf146105c8578063d7bb99ba14610601578063dad953a41461060957600080fd5b8063b307fc6d116100e7578063b307fc6d14610509578063be37822814610529578063c30db7461461053e578063c45a015514610554578063ca6d56dc1461058857600080fd5b80638ba00793146104895780638da5cb5b146104a95780639eab5253146104c7578063a03cf02b146104e957600080fd5b80633328d2be1161019b57806361d027b31161016a57806361d027b3146103f45780636680b62014610414578063715018a6146104345780637b2bc9a8146104495780637cb647591461046957600080fd5b80633328d2be1461037057806337aa8de9146103a857806337c08923146103c85780635fa0b65f146103de57600080fd5b80631753fac1116101d75780631753fac1146103025780631d194b561461031857806322385ed41461033a5780632eb4a7ab1461035a57600080fd5b806302fc778e1461020957806306fdde031461024e57806308ae4b0c146102705780630d547ecc146102de575b600080fd5b34801561021557600080fd5b50610239610224366004611880565b600c6020526000908152604090205460ff1681565b60405190151581526020015b60405180910390f35b34801561025a57600080fd5b506102636106bc565b60405161024591906118bf565b34801561027c57600080fd5b506102b861028b366004611880565b600f6020526000908152604090208054600182015460028301546003909301549192909160ff9091169084565b604080519485526020850193909352901515918301919091526060820152608001610245565b3480156102ea57600080fd5b506102f4600b5481565b604051908152602001610245565b34801561030e57600080fd5b506102f460045481565b34801561032457600080fd5b50610338610333366004611880565b61074a565b005b34801561034657600080fd5b506103386103553660046118f2565b610774565b34801561036657600080fd5b506102f4600e5481565b34801561037c57600080fd5b50600554610390906001600160a01b031681565b6040516001600160a01b039091168152602001610245565b3480156103b457600080fd5b50600654610390906001600160a01b031681565b3480156103d457600080fd5b506102f460095481565b3480156103ea57600080fd5b506102f460035481565b34801561040057600080fd5b50600a54610390906001600160a01b031681565b34801561042057600080fd5b50600754610390906001600160a01b031681565b34801561044057600080fd5b506103386108c5565b34801561045557600080fd5b50610338610464366004611927565b6108d9565b34801561047557600080fd5b50610338610484366004611963565b610940565b34801561049557600080fd5b506103386104a4366004611880565b61094d565b3480156104b557600080fd5b506000546001600160a01b0316610390565b3480156104d357600080fd5b506104dc610977565b604051610245919061197c565b3480156104f557600080fd5b50610239610504366004611a15565b6109d9565b34801561051557600080fd5b50610390610524366004611963565b610a5f565b34801561053557600080fd5b506102f4606481565b34801561054a57600080fd5b506102f460085481565b34801561056057600080fd5b506103907f000000000000000000000000000000000000000000000000000000000000000081565b34801561059457600080fd5b506103386105a3366004611880565b610a89565b3480156105b457600080fd5b506103386105c3366004611963565b610c4a565b3480156105d457600080fd5b506102f46105e3366004611880565b6001600160a01b03166000908152600f602052604090206003015490565b610338610c9f565b610338610617366004611a68565b610cb9565b34801561062857600080fd5b50610338610637366004611880565b610e68565b34801561064857600080fd5b50610338610657366004611880565b610fef565b34801561066857600080fd5b50610338610677366004611880565b611019565b34801561068857600080fd5b50610338610697366004611880565b611057565b3480156106a857600080fd5b50600d54610390906001600160a01b031681565b600280546106c990611aaa565b80601f01602080910402602001604051908101604052809291908181526020018280546106f590611aaa565b80156107425780601f1061071757610100808354040283529160200191610742565b820191906000526020600020905b81548152906001019060200180831161072557829003601f168201915b505050505081565b610752611081565b600680546001600160a01b0319166001600160a01b0392909216919091179055565b336000908152600f602052604090206002015460ff166107c85760405162461bcd60e51b815260206004820152600a6024820152692737ba1036b2b6b132b960b11b60448201526064015b60405180910390fd5b336000908152600f602052604090206003015461025811156108225760405162461bcd60e51b8152602060048201526013602482015272125b9cdd59999a58da595b9d0818dc99591a5d606a1b60448201526064016107bf565b60085460405163505c416f60e11b81526004810191909152336024820152604481018490526064810183905281906001600160a01b0382169063a0b882de90608401600060405180830381600087803b15801561087e57600080fd5b505af1158015610892573d6000803e3d6000fd5b5050336000908152600f602052604081206003018054603294509092506108ba908490611afa565b909155505050505050565b6108cd611081565b6108d760006110ae565b565b6108e1611081565b6001600160a01b0382166000818152600c6020908152604091829020805460ff191685151590811790915591519182527f4bfe73d0715483be6f6ce2240a8c3fc182a834e4218f07edc1a3e83d4afa1a8d910160405180910390a25050565b610948611081565b600e55565b610955611081565b600780546001600160a01b0319166001600160a01b0392909216919091179055565b606060108054806020026020016040519081016040528092919081815260200182805480156109cf57602002820191906000526020600020905b81546001600160a01b031681526001909101906020018083116109b1575b5050505050905090565b6040516bffffffffffffffffffffffff19606085901b1660208201526000908190603401604051602081830303815290604052805190602001209050610a5684848080602002602001604051908101604052809392919081815260200183836020028082843760009201919091525050600e5491508490506110fe565b95945050505050565b60108181548110610a6f57600080fd5b6000918252602090912001546001600160a01b0316905081565b610a91611081565b6001600160a01b0381166000908152600f602052604090206002015460ff1615610aee5760405162461bcd60e51b815260206004820152600e60248201526d20b63932b0b23c9036b2b6b132b960911b60448201526064016107bf565b604080516080810182526000808252602080830182815260018486018181526101f4606087019081526001600160a01b03898116808852600f90965288872097518855935187840155905160028701805460ff1916911515919091179055516003909501949094556010805494850181559092527f1b6847dc741a1b0cd08d278845f9d819d87b734759afb55fe2de5cb82a9ae67290920180546001600160a01b03191683179055600854925163f3dc52ab60e01b8152600481019390935260248301919091527f0000000000000000000000000000000000000000000000000000000000000000169063f3dc52ab90604401600060405180830381600087803b158015610bfb57600080fd5b505af1158015610c0f573d6000803e3d6000fd5b50506040516001600160a01b03841692507fb251eb052afc73ffd02ffe85ad79990a8b3fed60d76dbc2fa2fdd7123dffd9149150600090a250565b610c52611081565b60085415610c9a5760405162461bcd60e51b815260206004820152601560248201527410da5c98db1948125108185b1c9958591e481cd95d605a1b60448201526064016107bf565b600855565b610ca7611114565b610cb03361113e565b6108d760018055565b336000908152600c602052604090205460ff16610d105760405162461bcd60e51b81526020600482015260156024820152742ab730baba3437b934bd32b21037b832b930ba37b960591b60448201526064016107bf565b600354600090610d21908390611b0d565b600b54909150600090610d35908490611b0d565b9050610d418183611b24565b341015610d855760405162461bcd60e51b8152602060048201526012602482015271496e73756666696369656e742066756e647360701b60448201526064016107bf565b60005b83811015610dd157610dbf858583818110610da557610da5611b37565b9050602002016020810190610dba9190611880565b61113e565b80610dc981611b4d565b915050610d88565b50610ddc8183611b24565b341115610e2657336108fc82610df28534611afa565b610dfc9190611afa565b6040518115909202916000818181858888f19350505050158015610e24573d6000803e3d6000fd5b505b604080518481526020810184905233917ff12460a980232f2232f874fdc7b29c3e26bc21316591031b39e9e84b316bad2591015b60405180910390a250505050565b610e70611081565b60105415610ec05760405162461bcd60e51b815260206004820152601b60248201527f496e697469616c2063726561746f7220616c726561647920736574000000000060448201526064016107bf565b6001600160a01b0381166000908152600f602052604090206002015460ff1615610f1f5760405162461bcd60e51b815260206004820152601060248201526f20b63932b0b23c90309036b2b6b132b960811b60448201526064016107bf565b604080516080810182526000808252602080830182815260018486018181526101f4606087019081526001600160a01b038916808752600f909552878620965187559251868301555160028601805460ff1916911515919091179055905160039094019390935560108054938401815582527f1b6847dc741a1b0cd08d278845f9d819d87b734759afb55fe2de5cb82a9ae67290920180546001600160a01b03191683179055915190917fb251eb052afc73ffd02ffe85ad79990a8b3fed60d76dbc2fa2fdd7123dffd91491a250565b610ff7611081565b600a80546001600160a01b0319166001600160a01b0392909216919091179055565b611021611081565b6001600160a01b03811661104b57604051631e4fbdf760e01b8152600060048201526024016107bf565b611054816110ae565b50565b61105f611081565b600d80546001600160a01b0319166001600160a01b0392909216919091179055565b6000546001600160a01b031633146108d75760405163118cdaa760e01b81523360048201526024016107bf565b600080546001600160a01b038381166001600160a01b0319831681178455604051919092169283917f8be0079c531659141344cd1fd0a4f28419497f9722a3daafe3b4186f6b6457e09190a35050565b60008261110b85846117e3565b14949350505050565b60026001540361113757604051633ee5aeb560e01b815260040160405180910390fd5b6002600155565b6001600160a01b0381166000908152600f602052604090206002015460ff166111965760405162461bcd60e51b815260206004820152600a6024820152692737ba1036b2b6b132b960b11b60448201526064016107bf565b60026004546111a59190611b66565b6001600160a01b0382166000908152600f60205260409020546111c89190611b24565b421161120e5760405162461bcd60e51b815260206004820152601560248201527421b7b73a3934b13aba34b7b7103a37b79039b7b7b760591b60448201526064016107bf565b60055460405163a19f88e360e01b81524260048201526000916001600160a01b03169063a19f88e3906024016020604051808303816000875af1158015611259573d6000803e3d6000fd5b505050506040513d601f19601f8201168201806040525081019061127d9190611b88565b9050600061271060646003546112939190611b0d565b61129d9190611b66565b90506000816003546112af9190611afa565b905080600960008282546112c39190611b24565b90915550506001600160a01b0384166000908152600f6020526040812042815560010180548392906112f6908490611b24565b90915550506001600160a01b0384166000908152600f60205260409020600301546103529061132690600a611b24565b11611357576001600160a01b0384166000908152600f602052604090206003015461135290600a611b24565b61135b565b6103525b6001600160a01b0385166000908152600f6020526040902060030155811561141857600a546040516000916001600160a01b03169084908381818185875af1925050503d80600081146113ca576040519150601f19603f3d011682016040523d82523d6000602084013e6113cf565b606091505b50509050806114165760405162461bcd60e51b8152602060048201526013602482015272119959481d1c985b9cd9995c8819985a5b1959606a1b60448201526064016107bf565b505b6006546001600160a01b031615611508576006546040516001600160a01b038681166024830152600092169060440160408051601f198184030181529181526020820180516001600160e01b03166305409f3360e01b1790525161147c9190611ba1565b6000604051808303816000865af19150503d80600081146114b9576040519150601f19603f3d011682016040523d82523d6000602084013e6114be565b606091505b50509050806115065760405162461bcd60e51b815260206004820152601460248201527314dd1c99585ac81d5c19185d194819985a5b195960621b60448201526064016107bf565b505b6007546001600160a01b03161580159061154557506001600160a01b0384166000908152600f602052604090206001015467016345785d8a000011155b1561163a5760075460085460405160248101919091526001600160a01b03868116604483015260026064830152600092169060840160408051601f198184030181529181526020820180516001600160e01b03166227753160e31b179052516115ae9190611ba1565b6000604051808303816000865af19150503d80600081146115eb576040519150601f19603f3d011682016040523d82523d6000602084013e6115f0565b606091505b50509050806116385760405162461bcd60e51b815260206004820152601460248201527310985919d9481b5a5b9d1a5b99c819985a5b195960621b60448201526064016107bf565b505b600d546001600160a01b0316156116c6576000600354600a61165c9190611b0d565b600d546040516340c10f1960e01b81526001600160a01b038881166004830152602482018490529293509116906340c10f1990604401600060405180830381600087803b1580156116ac57600080fd5b505af11580156116c0573d6000803e3d6000fd5b50505050505b60085460405163580ee13760e11b81526004810191909152602481018290527f00000000000000000000000000000000000000000000000000000000000000006001600160a01b03169063b01dc26e90604401600060405180830381600087803b15801561173357600080fd5b505af1158015611747573d6000803e3d6000fd5b5050604080518481524260208201529081018690526001600160a01b03871692507fbe446d8cd0c11cac7c17817d3cc2a18d11008ab0c439d03564c978df97805728915060600160405180910390a26001600160a01b0384166000818152600f60209081526040918290206003015491519182527f79c012a0cfae660e09134956bc432c8497ec80e86a3a108d130e8b3fca52b3ad9101610e5a565b600081815b8451811015611828576118148286838151811061180757611807611b37565b6020026020010151611832565b91508061182081611b4d565b9150506117e8565b5090505b92915050565b600081831061184e57600082815260208490526040902061185d565b60008381526020839052604090205b9392505050565b80356001600160a01b038116811461187b57600080fd5b919050565b60006020828403121561189257600080fd5b61185d82611864565b60005b838110156118b657818101518382015260200161189e565b50506000910152565b60208152600082518060208401526118de81604085016020870161189b565b601f01601f19169190910160400192915050565b60008060006060848603121561190757600080fd5b833592506020840135915061191e60408501611864565b90509250925092565b6000806040838503121561193a57600080fd5b61194383611864565b91506020830135801515811461195857600080fd5b809150509250929050565b60006020828403121561197557600080fd5b5035919050565b6020808252825182820181905260009190848201906040850190845b818110156119bd5783516001600160a01b031683529284019291840191600101611998565b50909695505050505050565b60008083601f8401126119db57600080fd5b50813567ffffffffffffffff8111156119f357600080fd5b6020830191508360208260051b8501011115611a0e57600080fd5b9250929050565b600080600060408486031215611a2a57600080fd5b611a3384611864565b9250602084013567ffffffffffffffff811115611a4f57600080fd5b611a5b868287016119c9565b9497909650939450505050565b60008060208385031215611a7b57600080fd5b823567ffffffffffffffff811115611a9257600080fd5b611a9e858286016119c9565b90969095509350505050565b600181811c90821680611abe57607f821691505b602082108103611ade57634e487b7160e01b600052602260045260246000fd5b50919050565b634e487b7160e01b600052601160045260246000fd5b8181038181111561182c5761182c611ae4565b808202811582820484141761182c5761182c611ae4565b8082018082111561182c5761182c611ae4565b634e487b7160e01b600052603260045260246000fd5b600060018201611b5f57611b5f611ae4565b5060010190565b600082611b8357634e487b7160e01b600052601260045260246000fd5b500490565b600060208284031215611b9a57600080fd5b5051919050565b60008251611bb381846020870161189b565b919091019291505056fea2646970667358221220da6d01e0174ab203d04c5512608634455772faee3da2b9a155a0bd3a82a4166264736f6c6343000814003360806040526203f48060035534801561001757600080fd5b5060405161107038038061107083398101604081905261003691610101565b816001600160a01b03811661006557604051631e4fbdf760e01b81526000600482015260240160405180910390fd5b61006e81610095565b50600480546001600160a01b0319166001600160a01b039290921691909117905550610134565b600080546001600160a01b038381166001600160a01b0319831681178455604051919092169283917f8be0079c531659141344cd1fd0a4f28419497f9722a3daafe3b4186f6b6457e09190a35050565b80516001600160a01b03811681146100fc57600080fd5b919050565b6000806040838503121561011457600080fd5b61011d836100e5565b915061012b602084016100e5565b90509250929050565b610f2d806101436000396000f3fe608060405234801561001057600080fd5b50600436106100cf5760003560e01c80638da5cb5b1161008c578063c7f758a811610066578063c7f758a8146101a2578063c9d27afe146101b5578063da35c664146101c8578063f2fde38b146101d157600080fd5b80638da5cb5b1461015757806398c3c8221461017c578063c45a01551461018f57600080fd5b8063013cf08b146100d457806302a251a3146101065780630d61b5191461011d57806337f135d714610132578063485cc9551461013c578063715018a61461014f575b600080fd5b6100e76100e2366004610a45565b6101e4565b6040516100fd9a99989796959493929190610adc565b60405180910390f35b61010f60035481565b6040519081526020016100fd565b61013061012b366004610a45565b610356565b005b61010f6201518081565b61013061014a366004610b75565b6104b3565b610130610534565b6000546001600160a01b03165b6040516001600160a01b0390911681526020016100fd565b61013061018a366004610c4b565b610548565b600454610164906001600160a01b031681565b6100e76101b0366004610a45565b610696565b6101306101c3366004610ce0565b610853565b61010f60015481565b6101306101df366004610d15565b61098a565b6002602081905260009182526040909120805460018201549282018054919360ff16929161021190610d37565b80601f016020809104026020016040519081016040528092919081815260200182805461023d90610d37565b801561028a5780601f1061025f5761010080835404028352916020019161028a565b820191906000526020600020905b81548152906001019060200180831161026d57829003601f168201915b50505050509080600301805461029f90610d37565b80601f01602080910402602001604051908101604052809291908181526020018280546102cb90610d37565b80156103185780601f106102ed57610100808354040283529160200191610318565b820191906000526020600020905b8154815290600101906020018083116102fb57829003601f168201915b50505060048401546005850154600686015460078701546008880154600990980154969793966001600160a01b039093169550909350919060ff168a565b61035e6109c8565b6000818152600260205260409020600681015442116103b55760405162461bcd60e51b815260206004820152600e60248201526d566f74696e67206f6e676f696e6760901b60448201526064015b60405180910390fd5b6201518081600601546103c89190610d87565b42116104085760405162461bcd60e51b815260206004820152600f60248201526e54696d656c6f636b2061637469766560881b60448201526064016103ac565b600981015460ff16156104505760405162461bcd60e51b815260206004820152601060248201526f105b1c9958591e48195e1958dd5d195960821b60448201526064016103ac565b60098101805460ff1916600117905560088101546007820154117f948f4a9cd986f1118c3fbd459f7a22b23c0693e1ca3ef06a6a8be5aa7d39cc0383826040516104a69291909182521515602082015260400190565b60405180910390a1505050565b600454600160a01b900460ff16156105035760405162461bcd60e51b8152602060048201526013602482015272105b1c9958591e481a5b9a5d1a585b1a5e9959606a1b60448201526064016103ac565b61050c826109f5565b600480546001600160a81b0319166001600160a01b0390921691909117600160a01b17905550565b61053c6109c8565b61054660006109f5565b565b6004546001600160a01b031633148061056b57506000546001600160a01b031633145b6105a85760405162461bcd60e51b815260206004820152600e60248201526d139bdd08185d5d1a1bdc9a5e995960921b60448201526064016103ac565b600180549060006105b883610da0565b9091555050600180546000818152600260208190526040909120918255818301805492938993919260ff199092169184908111156105f8576105f8610a5e565b02179055506002810161060b8682610e08565b506003810161061a8582610e08565b50600481018390556005810180546001600160a01b0319166001600160a01b03841617905560035461064c9042610d87565b60068201556001546040517f2d6a2a1a504050a1fa6107e44f49971fd89dbe544b433d65f1c572ce5fa3b7d1916106869189908990610ec8565b60405180910390a1505050505050565b6000806060806000806000806000806000600260008d8152602001908152602001600020905080600001548160010160009054906101000a900460ff16826002018360030184600401548560050160009054906101000a90046001600160a01b03168660060154876007015488600801548960090160009054906101000a900460ff1687805461072590610d37565b80601f016020809104026020016040519081016040528092919081815260200182805461075190610d37565b801561079e5780601f106107735761010080835404028352916020019161079e565b820191906000526020600020905b81548152906001019060200180831161078157829003601f168201915b505050505097508680546107b190610d37565b80601f01602080910402602001604051908101604052809291908181526020018280546107dd90610d37565b801561082a5780601f106107ff5761010080835404028352916020019161082a565b820191906000526020600020905b81548152906001019060200180831161080d57829003601f168201915b505050505096509a509a509a509a509a509a509a509a509a509a50509193959799509193959799565b600082815260026020526040902060068101544211156108a45760405162461bcd60e51b815260206004820152600c60248201526b159bdd1a5b99c8195b99195960a21b60448201526064016103ac565b336000908152600a8201602052604090205460ff16156108f65760405162461bcd60e51b815260206004820152600d60248201526c105b1c9958591e481d9bdd1959609a1b60448201526064016103ac565b336000908152600a820160205260409020805460ff1916600117905581156109345760078101805490600061092a83610da0565b919050555061094c565b60088101805490600061094683610da0565b91905055505b6040518215158152339084907ff2913dbe661ee2acc4a046d8fbcdc792373bda34c41c6086484b5345e5785e5f9060200160405180910390a3505050565b6109926109c8565b6001600160a01b0381166109bc57604051631e4fbdf760e01b8152600060048201526024016103ac565b6109c5816109f5565b50565b6000546001600160a01b031633146105465760405163118cdaa760e01b81523360048201526024016103ac565b600080546001600160a01b038381166001600160a01b0319831681178455604051919092169283917f8be0079c531659141344cd1fd0a4f28419497f9722a3daafe3b4186f6b6457e09190a35050565b600060208284031215610a5757600080fd5b5035919050565b634e487b7160e01b600052602160045260246000fd5b60038110610a9257634e487b7160e01b600052602160045260246000fd5b9052565b6000815180845260005b81811015610abc57602081850181015186830182015201610aa0565b506000602082860101526020601f19601f83011685010191505092915050565b60006101408c8352610af1602084018d610a74565b806040840152610b038184018c610a96565b90508281036060840152610b17818b610a96565b608084019990995250506001600160a01b039590951660a086015260c085019390935260e0840191909152610100830152151561012090910152949350505050565b80356001600160a01b0381168114610b7057600080fd5b919050565b60008060408385031215610b8857600080fd5b610b9183610b59565b9150610b9f60208401610b59565b90509250929050565b634e487b7160e01b600052604160045260246000fd5b600082601f830112610bcf57600080fd5b813567ffffffffffffffff80821115610bea57610bea610ba8565b604051601f8301601f19908116603f01168101908282118183101715610c1257610c12610ba8565b81604052838152866020858801011115610c2b57600080fd5b836020870160208301376000602085830101528094505050505092915050565b600080600080600060a08688031215610c6357600080fd5b853560038110610c7257600080fd5b9450602086013567ffffffffffffffff80821115610c8f57600080fd5b610c9b89838a01610bbe565b95506040880135915080821115610cb157600080fd5b50610cbe88828901610bbe565b93505060608601359150610cd460808701610b59565b90509295509295909350565b60008060408385031215610cf357600080fd5b8235915060208301358015158114610d0a57600080fd5b809150509250929050565b600060208284031215610d2757600080fd5b610d3082610b59565b9392505050565b600181811c90821680610d4b57607f821691505b602082108103610d6b57634e487b7160e01b600052602260045260246000fd5b50919050565b634e487b7160e01b600052601160045260246000fd5b80820180821115610d9a57610d9a610d71565b92915050565b600060018201610db257610db2610d71565b5060010190565b601f821115610e0357600081815260208120601f850160051c81016020861015610de05750805b601f850160051c820191505b81811015610dff57828155600101610dec565b5050505b505050565b815167ffffffffffffffff811115610e2257610e22610ba8565b610e3681610e308454610d37565b84610db9565b602080601f831160018114610e6b5760008415610e535750858301515b600019600386901b1c1916600185901b178555610dff565b600085815260208120601f198616915b82811015610e9a57888601518255948401946001909101908401610e7b565b5085821015610eb85787850151600019600388901b60f8161c191681555b5050505050600190811b01905550565b838152610ed86020820184610a74565b606060408201526000610eee6060830184610a96565b9594505050505056fea26469706673582212204fb8adee017acdcc168546246ab0f3dd8a5cd6bda61e706a5e3f4065d464066864736f6c63430008140033608060405234801561001057600080fd5b50338061003757604051631e4fbdf760e01b81526000600482015260240160405180910390fd5b61004081610056565b50600180546001600160a01b03191690556100a6565b600080546001600160a01b038381166001600160a01b0319831681178455604051919092169283917f8be0079c531659141344cd1fd0a4f28419497f9722a3daafe3b4186f6b6457e09190a35050565b610c8d806100b56000396000f3fe608060405234801561001057600080fd5b506004361061010b5760003560e01c80638ba00793116100a2578063c45a015511610071578063c45a015514610257578063c9d4623f1461026a578063d1a50ff71461027d578063ecf5e4aa14610290578063f2fde38b146102a357600080fd5b80638ba00793146102095780638da5cb5b1461021c57806394e167d31461022d578063c30db7461461024057600080fd5b80636680b620116100de5780636680b62014610191578063715018a6146101a457806379fd9365146101ac5780637b5d2534146101f657600080fd5b806305409f33146101105780630e830e49146101255780632f1a6a7b146101385780635a58de2f1461017e575b600080fd5b61012361011e366004610a3e565b6102b6565b005b610123610133366004610a3e565b610310565b610161610146366004610a62565b6007602052600090815260409020546001600160a01b031681565b6040516001600160a01b0390911681526020015b60405180910390f35b61012361018c366004610a3e565b6103e1565b600454610161906001600160a01b031681565b61012361040b565b6101db6101ba366004610a3e565b60066020526000908152604090208054600182015460029092015490919083565b60408051938452602084019290925290820152606001610175565b600154610161906001600160a01b031681565b610123610217366004610a3e565b61041f565b6000546001600160a01b0316610161565b61012361023b366004610a7b565b610472565b61024960055481565b604051908152602001610175565b600354610161906001600160a01b031681565b600254610161906001600160a01b031681565b61012361028b366004610a62565b61066c565b61012361029e366004610abe565b610699565b6101236102b1366004610a3e565b610710565b6002546001600160a01b031633146103045760405162461bcd60e51b815260206004820152600c60248201526b155b985d5d1a1bdc9a5e995960a21b60448201526064015b60405180910390fd5b61030d8161074b565b50565b6103186109ac565b6002546001600160a01b0316156103415760405162461bcd60e51b81526004016102fb90610aea565b600280546001600160a01b0319166001600160a01b0383169081179091556040805163c45a015560e01b8152905163c45a0155916004808201926020929091908290030181865afa15801561039a573d6000803e3d6000fd5b505050506040513d601f19601f820116820180604052508101906103be9190610b0f565b600380546001600160a01b0319166001600160a01b039290921691909117905550565b6103e96109ac565b600180546001600160a01b0319166001600160a01b0392909216919091179055565b6104136109ac565b61041d60006109d9565b565b6104276109ac565b6004546001600160a01b0316156104505760405162461bcd60e51b81526004016102fb90610aea565b600480546001600160a01b0319166001600160a01b0392909216919091179055565b6040805160c0810182528235815260208084013581830152818301869052600060608084018290526002548551911b6bffffffffffffffffffffffff1916818401528451808203601401815260349091018552805192019190912060808301528251610100808201909452909260a08084019291908601906008908390839080828437600092019190915250505090526001546040516308ade83160e31b81529192506001600160a01b03169063456f4188906105359086908590600401610b2c565b602060405180830381865afa158015610552573d6000803e3d6000fd5b505050506040513d601f19601f820116820180604052508101906105769190610b9b565b6105b25760405162461bcd60e51b815260206004820152600d60248201526c24b73b30b634b210383937b7b360991b60448201526064016102fb565b6000848152600760205260409020546001600160a01b03168061060b5760405162461bcd60e51b81526020600482015260116024820152702ab735b737bbb710373ab63634b334b2b960791b60448201526064016102fb565b6106148161074b565b6001600160a01b038116600090815260066020908152604091829020548251888152918201527f8e08e0be3250e61f8e71271c64b342c9c6d09821296f04643b92c266d40954c5910160405180910390a15050505050565b6106746109ac565b600554156106945760405162461bcd60e51b81526004016102fb90610aea565b600555565b6002546001600160a01b031633146106e25760405162461bcd60e51b815260206004820152600c60248201526b155b985d5d1a1bdc9a5e995960a21b60448201526064016102fb565b600090815260076020526040902080546001600160a01b0319166001600160a01b0392909216919091179055565b6107186109ac565b6001600160a01b03811661074257604051631e4fbdf760e01b8152600060048201526024016102fb565b61030d816109d9565b6001600160a01b0380821660009081526006602090815260408083206002548251631753fac160e01b8152925191951692631753fac192600480820193918290030181865afa1580156107a2573d6000803e3d6000fd5b505050506040513d601f19601f820116820180604052508101906107c69190610bbd565b90506107d3816002610bec565b82600201546107e29190610c09565b4211156107f25760018255610846565b8082600201546108029190610c09565b42111561082157815482600061081783610c1c565b9190505550610846565b61082c600282610c35565b826002015461083b9190610c09565b421161084657600182555b6001820154825411156108d557815460018301556003546001600160a01b0316156108d557600354600554835460405163f59eb02d60e01b8152600481019290925260248201526001600160a01b039091169063f59eb02d90604401600060405180830381600087803b1580156108bc57600080fd5b505af11580156108d0573d6000803e3d6000fd5b505050505b815460071480156108f057506004546001600160a01b031615155b1561096157600480546005546040516227753160e31b8152928301526001600160a01b03858116602484015260016044840152169063013ba98890606401600060405180830381600087803b15801561094857600080fd5b505af115801561095c573d6000803e3d6000fd5b505050505b42600283015581546040519081526001600160a01b038416907f46f6fe577ecfefe55b0f14f0b42ddb4c22db1fb9bade43aa02c5ef4e5439512e9060200160405180910390a2505050565b6000546001600160a01b0316331461041d5760405163118cdaa760e01b81523360048201526024016102fb565b600080546001600160a01b038381166001600160a01b0319831681178455604051919092169283917f8be0079c531659141344cd1fd0a4f28419497f9722a3daafe3b4186f6b6457e09190a35050565b6001600160a01b038116811461030d57600080fd5b600060208284031215610a5057600080fd5b8135610a5b81610a29565b9392505050565b600060208284031215610a7457600080fd5b5035919050565b60008060008385036101e0811215610a9257600080fd5b84359350602085013592506101a0603f1982011215610ab057600080fd5b506040840190509250925092565b60008060408385031215610ad157600080fd5b8235610adc81610a29565b946020939093013593505050565b6020808252600b908201526a105b1c9958591e481cd95d60aa1b604082015260600190565b600060208284031215610b2157600080fd5b8151610a5b81610a29565b60006101c08201905083825260208351818401528084015160408401526040840151606084015260608401516080840152608084015160a084015260a084015160c0840160005b6008811015610b9057825182529183019190830190600101610b73565b505050509392505050565b600060208284031215610bad57600080fd5b81518015158114610a5b57600080fd5b600060208284031215610bcf57600080fd5b5051919050565b634e487b7160e01b600052601160045260246000fd5b8082028115828204841417610c0357610c03610bd6565b92915050565b80820180821115610c0357610c03610bd6565b600060018201610c2e57610c2e610bd6565b5060010190565b600082610c5257634e487b7160e01b600052601260045260246000fd5b50049056fea2646970667358221220ce5b4bea956cfa16fed91a62050ea03963de9d77689bdc9397e57f8bd792c4af64736f6c63430008140033a264697066735822122049ac42a36addd764ef68cd80b1e71034289ba0fae122ad6a5b0bb954efdfbbaf64736f6c63430008140033",
  "linkReferences": {},
  "deployedLinkReferences": {}
}