{
  "_format": "hh-sol-artifact-1",
  "contractName": "CircleDeployer",
  "sourceName": "contracts/CircleDeployer.sol",
  "abi": [
    {
      "inputs": [
        {
          "internalType": "address",
          "name": "_factoryAddress",
          "type": "address"
        },
        {
          "internalType": "address",
          "name": "_btcOracleAddress",
          "type": "address"
        },
        {
          "internalType": "address",
          "name": "_treasuryAddress",
          "type": "address"
        },
        {
          "internalType": "address",
          "name": "_badgeSystemAddress",
          "type": "address"
        }
      ],
      "stateMutability": "nonpayable",
      "type": "constructor"
    },
    {
      "inputs": [
        {
          "internalType": "address",
          "name": "owner",
          "type": "address"
        }
      ],
      "name": "OwnableInvalidOwner",
      "type": "error"
    },
    {
      "inputs": [
        {
          "internalType": "address",
          "name": "account",
          "type": "address"
        }
      ],
      "name": "OwnableUnauthorizedAccount",
      "type": "error"
    },
    {
      "anonymous": false,
      "inputs": [
        {
          "indexed": true,
          "internalType": "address",
          "name": "previousOwner",
          "type": "address"
        },
        {
          "indexed": true,
          "internalType": "address",
          "name": "newOwner",
          "type": "address"
        }
      ],
      "name": "OwnershipTransferred",
      "type": "event"
    },
    {
      "inputs": [],
      "name": "badgeSystemAddress",
      "outputs": [
        {
          "internalType": "address",
          "name": "",
          "type": "address"
        }
      ],
      "stateMutability": "view",
      "type": "function"
    },
    {
      "inputs": [],
      "name": "btcOracleAddress",
      "outputs": [
        {
          "internalType": "address",
          "name": "",
          "type": "address"
        }
      ],
      "stateMutability": "view",
      "type": "function"
    },
    {
      "inputs": [
        {
          "internalType": "string",
          "name": "name",
          "type": "string"
        },
        {
          "internalType": "uint256",
          "name": "goal",
          "type": "uint256"
        },
        {
          "internalType": "uint256",
          "name": "contributionAmount",
          "type": "uint256"
        },
        {
          "internalType": "uint256",
          "name": "contributionPeriod",
          "type": "uint256"
        },
        {
          "internalType": "address",
          "name": "circleOwner",
          "type": "address"
        },
        {
          "internalType": "bool",
          "name": "isPremium",
          "type": "bool"
        }
      ],
      "name": "deployAndRegisterCircle",
      "outputs": [],
      "stateMutability": "payable",
      "type": "function"
    },
    {
      "inputs": [],
      "name": "factoryAddress",
      "outputs": [
        {
          "internalType": "address",
          "name": "",
          "type": "address"
        }
      ],
      "stateMutability": "view",
      "type": "function"
    },
    {
      "inputs": [],
      "name": "owner",
      "outputs": [
        {
          "internalType": "address",
          "name": "",
          "type": "address"
        }
      ],
      "stateMutability": "view",
      "type": "function"
    },
    {
      "inputs": [],
      "name": "renounceOwnership",
      "outputs": [],
      "stateMutability": "nonpayable",
      "type": "function"
    },
    {
      "inputs": [
        {
          "internalType": "address",
          "name": "newOwner",
          "type": "address"
        }
      ],
      "name": "transferOwnership",
      "outputs": [],
      "stateMutability": "nonpayable",
      "type": "function"
    },
    {
      "inputs": [],
      "name": "treasuryAddress",
      "outputs": [
        {
          "internalType": "address",
          "name": "",
          "type": "address"
        }
      ],
      "stateMutability": "view",
      "type": "function"
    }
  ],
  "bytecode": "0x61010060405234801561001157600080fd5b5060405162004e4d38038062004e4d833981016040819052610032916100f0565b338061005857604051631e4fbdf760e01b81526000600482015260240160405180910390fd5b61006181610084565b506001600160a01b0393841660805291831660a052821660c0521660e052610144565b600080546001600160a01b038381166001600160a01b0319831681178455604051919092169283917f8be0079c531659141344cd1fd0a4f28419497f9722a3daafe3b4186f6b6457e09190a35050565b80516001600160a01b03811681146100eb57600080fd5b919050565b6000806000806080858703121561010657600080fd5b61010f856100d4565b935061011d602086016100d4565b925061012b604086016100d4565b9150610139606086016100d4565b905092959194509250565b60805160a05160c05160e051614c91620001bc600039600081816101ad0152818161054801526106850152600081816101770152610280015260008181609e015261023e0152600081816101410152818161025f015281816102e30152818161037b01528181610702015261077f0152614c916000f3fe608060405260043610620000855760003560e01c8063966dae0e1162000054578063966dae0e146200012d578063c5f956af1462000163578063e4dcf6c61462000199578063f2fde38b14620001cf57600080fd5b8063532a82ee146200008a578063715018a614620000dc5780638661652914620000f65780638da5cb5b146200010d575b600080fd5b3480156200009757600080fd5b50620000c07f000000000000000000000000000000000000000000000000000000000000000081565b6040516001600160a01b03909116815260200160405180910390f35b348015620000e957600080fd5b50620000f4620001f4565b005b620000f462000107366004620009da565b6200020c565b3480156200011a57600080fd5b506000546001600160a01b0316620000c0565b3480156200013a57600080fd5b50620000c07f000000000000000000000000000000000000000000000000000000000000000081565b3480156200017057600080fd5b50620000c07f000000000000000000000000000000000000000000000000000000000000000081565b348015620001a657600080fd5b50620000c07f000000000000000000000000000000000000000000000000000000000000000081565b348015620001dc57600080fd5b50620000f4620001ee36600462000ad6565b620008a5565b620001fe620008ed565b6200020a60006200091c565b565b62000216620008ed565b6000866040516020016200022b919062000b21565b60405160208183030381529060405285857f00000000000000000000000000000000000000000000000000000000000000007f00000000000000000000000000000000000000000000000000000000000000007f0000000000000000000000000000000000000000000000000000000000000000604051620002ad906200096c565b620002be9695949392919062000b7c565b604051809103906000f080158015620002db573d6000803e3d6000fd5b5090506000307f000000000000000000000000000000000000000000000000000000000000000060405162000310906200097a565b6001600160a01b03928316815291166020820152604001604051809103906000f08015801562000344573d6000803e3d6000fd5b5090506000604051620003579062000988565b604051809103906000f08015801562000374573d6000803e3d6000fd5b50905060007f00000000000000000000000000000000000000000000000000000000000000006001600160a01b031663a537ee41348c8c8887898d8d6040518963ffffffff1660e01b8152600401620003d4979695949392919062000bc6565b60206040518083038185885af1158015620003f3573d6000803e3d6000fd5b50505050506040513d601f19601f820116820180604052508101906200041a919062000c1a565b60405163d1a50ff760e01b8152600481018290529091506001600160a01b0385169063d1a50ff790602401600060405180830381600087803b1580156200046057600080fd5b505af115801562000475573d6000803e3d6000fd5b505060405163760f1cb760e11b81526001600160a01b0389811660048301528716925063ec1e396e9150602401600060405180830381600087803b158015620004bd57600080fd5b505af1158015620004d2573d6000803e3d6000fd5b5050604051630e8ca5ab60e11b81526001600160a01b03858116600483015287169250631d194b569150602401600060405180830381600087803b1580156200051a57600080fd5b505af11580156200052f573d6000803e3d6000fd5b5050604051638ba0079360e01b81526001600160a01b037f00000000000000000000000000000000000000000000000000000000000000008116600483015287169250638ba007939150602401600060405180830381600087803b1580156200059757600080fd5b505af1158015620005ac573d6000803e3d6000fd5b505060405163d1a50ff760e01b8152600481018490526001600160a01b038516925063d1a50ff79150602401600060405180830381600087803b158015620005f357600080fd5b505af115801562000608573d6000803e3d6000fd5b5050604051630e830e4960e01b81526001600160a01b03878116600483015285169250630e830e499150602401600060405180830381600087803b1580156200065057600080fd5b505af115801562000665573d6000803e3d6000fd5b505060405163df1183db60e01b8152600481018490526001600160a01b037f0000000000000000000000000000000000000000000000000000000000000000811660248301528616925063df1183db9150604401600060405180830381600087803b158015620006d457600080fd5b505af1158015620006e9573d6000803e3d6000fd5b505060405163f2fde38b60e01b81526001600160a01b037f0000000000000000000000000000000000000000000000000000000000000000811660048301528716925063f2fde38b9150602401600060405180830381600087803b1580156200075157600080fd5b505af115801562000766573d6000803e3d6000fd5b505060405163f2fde38b60e01b81526001600160a01b037f0000000000000000000000000000000000000000000000000000000000000000811660048301528516925063f2fde38b9150602401600060405180830381600087803b158015620007ce57600080fd5b505af1158015620007e3573d6000803e3d6000fd5b505060405163f2fde38b60e01b81526001600160a01b0389811660048301528616925063f2fde38b9150602401600060405180830381600087803b1580156200082b57600080fd5b505af115801562000840573d6000803e3d6000fd5b50505050826001600160a01b03166379ba50976040518163ffffffff1660e01b8152600401600060405180830381600087803b1580156200088057600080fd5b505af115801562000895573d6000803e3d6000fd5b5050505050505050505050505050565b620008af620008ed565b6001600160a01b038116620008df57604051631e4fbdf760e01b8152600060048201526024015b60405180910390fd5b620008ea816200091c565b50565b6000546001600160a01b031633146200020a5760405163118cdaa760e01b8152336004820152602401620008d6565b600080546001600160a01b038381166001600160a01b0319831681178455604051919092169283917f8be0079c531659141344cd1fd0a4f28419497f9722a3daafe3b4186f6b6457e09190a35050565b611fe88062000c3583390190565b6112de8062002c1d83390190565b610d618062003efb83390190565b634e487b7160e01b600052604160045260246000fd5b80356001600160a01b0381168114620009c457600080fd5b919050565b80358015158114620009c457600080fd5b60008060008060008060c08789031215620009f457600080fd5b863567ffffffffffffffff8082111562000a0d57600080fd5b818901915089601f83011262000a2257600080fd5b81358181111562000a375762000a3762000996565b604051601f8201601f19908116603f0116810190838211818310171562000a625762000a6262000996565b816040528281528c602084870101111562000a7c57600080fd5b82602086016020830137600060208483010152809a50505050505060208701359450604087013593506060870135925062000aba60808801620009ac565b915062000aca60a08801620009c9565b90509295509295509295565b60006020828403121562000ae957600080fd5b62000af482620009ac565b9392505050565b60005b8381101562000b1857818101518382015260200162000afe565b50506000910152565b6000825162000b3581846020870162000afb565b6620456e67696e6560c81b920191825250600701919050565b6000815180845262000b6881602086016020860162000afb565b601f01601f19169290920160200192915050565b60c08152600062000b9160c083018962000b4e565b60208301979097525060408101949094526001600160a01b03928316606085015290821660808401521660a090910152919050565b60e08152600062000bdb60e083018a62000b4e565b6020830198909852506001600160a01b0395861660408201529385166060850152918416608084015290921660a082015290151560c090910152919050565b60006020828403121562000c2d57600080fd5b505191905056fe60a0604052655af3107a4000600b553480156200001b57600080fd5b5060405162001fe838038062001fe88339810160408190526200003e916200014c565b33806200006557604051631e4fbdf760e01b81526000600482015260240160405180910390fd5b6200007081620000c9565b50600180556002620000838782620002fa565b50600394909455600492909255600580546001600160a01b039283166001600160a01b031991821617909155918116608052600a805491909316911617905550620003c6565b600080546001600160a01b038381166001600160a01b0319831681178455604051919092169283917f8be0079c531659141344cd1fd0a4f28419497f9722a3daafe3b4186f6b6457e09190a35050565b634e487b7160e01b600052604160045260246000fd5b80516001600160a01b03811681146200014757600080fd5b919050565b60008060008060008060c087890312156200016657600080fd5b86516001600160401b03808211156200017e57600080fd5b818901915089601f8301126200019357600080fd5b815181811115620001a857620001a862000119565b604051601f8201601f19908116603f01168101908382118183101715620001d357620001d362000119565b81604052828152602093508c84848701011115620001f057600080fd5b600091505b82821015620002145784820184015181830185015290830190620001f5565b6000848483010152809a505050508089015196505050604087015193506200023f606088016200012f565b92506200024f608088016200012f565b91506200025f60a088016200012f565b90509295509295509295565b600181811c908216806200028057607f821691505b602082108103620002a157634e487b7160e01b600052602260045260246000fd5b50919050565b601f821115620002f557600081815260208120601f850160051c81016020861015620002d05750805b601f850160051c820191505b81811015620002f157828155600101620002dc565b5050505b505050565b81516001600160401b0381111562000316576200031662000119565b6200032e816200032784546200026b565b84620002a7565b602080601f8311600181146200036657600084156200034d5750858301515b600019600386901b1c1916600185901b178555620002f1565b600085815260208120601f198616915b82811015620003975788860151825594840194600190910190840162000376565b5085821015620003b65787850151600019600388901b60f8161c191681555b5050505050600190811b01905550565b608051611bf8620003f06000396000818161056601528181610bb401526117070152611bf86000f3fe6080604052600436106102045760003560e01c80638ba0079311610118578063d1a50ff7116100a0578063ec1e396e1161006f578063ec1e396e1461061c578063f0f442601461063c578063f2fde38b1461065c578063f85701701461067c578063f96dae0a1461069c57600080fd5b8063d1a50ff7146105a8578063d3dd2bdf146105c8578063d7bb99ba14610601578063dad953a41461060957600080fd5b8063b307fc6d116100e7578063b307fc6d14610509578063be37822814610529578063c30db7461461053e578063c45a015514610554578063ca6d56dc1461058857600080fd5b80638ba00793146104895780638da5cb5b146104a95780639eab5253146104c7578063a03cf02b146104e957600080fd5b80633328d2be1161019b57806361d027b31161016a57806361d027b3146103f45780636680b62014610414578063715018a6146104345780637b2bc9a8146104495780637cb647591461046957600080fd5b80633328d2be1461037057806337aa8de9146103a857806337c08923146103c85780635fa0b65f146103de57600080fd5b80631753fac1116101d75780631753fac1146103025780631d194b561461031857806322385ed41461033a5780632eb4a7ab1461035a57600080fd5b806302fc778e1461020957806306fdde031461024e57806308ae4b0c146102705780630d547ecc146102de575b600080fd5b34801561021557600080fd5b506102396102243660046118aa565b600c6020526000908152604090205460ff1681565b60405190151581526020015b60405180910390f35b34801561025a57600080fd5b506102636106bc565b60405161024591906118c5565b34801561027c57600080fd5b506102b861028b3660046118aa565b600f6020526000908152604090208054600182015460028301546003909301549192909160ff9091169084565b604080519485526020850193909352901515918301919091526060820152608001610245565b3480156102ea57600080fd5b506102f4600b5481565b604051908152602001610245565b34801561030e57600080fd5b506102f460045481565b34801561032457600080fd5b506103386103333660046118aa565b61074a565b005b34801561034657600080fd5b50610338610355366004611913565b610774565b34801561036657600080fd5b506102f4600e5481565b34801561037c57600080fd5b50600554610390906001600160a01b031681565b6040516001600160a01b039091168152602001610245565b3480156103b457600080fd5b50600654610390906001600160a01b031681565b3480156103d457600080fd5b506102f460095481565b3480156103ea57600080fd5b506102f460035481565b34801561040057600080fd5b50600a54610390906001600160a01b031681565b34801561042057600080fd5b50600754610390906001600160a01b031681565b34801561044057600080fd5b506103386108c2565b34801561045557600080fd5b50610338610464366004611948565b6108d6565b34801561047557600080fd5b50610338610484366004611984565b61093d565b34801561049557600080fd5b506103386104a43660046118aa565b61094a565b3480156104b557600080fd5b506000546001600160a01b0316610390565b3480156104d357600080fd5b506104dc610974565b604051610245919061199d565b3480156104f557600080fd5b50610239610504366004611a36565b6109d6565b34801561051557600080fd5b50610390610524366004611984565b610a5c565b34801561053557600080fd5b506102f4606481565b34801561054a57600080fd5b506102f460085481565b34801561056057600080fd5b506103907f000000000000000000000000000000000000000000000000000000000000000081565b34801561059457600080fd5b506103386105a33660046118aa565b610a86565b3480156105b457600080fd5b506103386105c3366004611984565b610c47565b3480156105d457600080fd5b506102f46105e33660046118aa565b6001600160a01b03166000908152600f602052604090206003015490565b610338610c9c565b610338610617366004611a89565b610d07565b34801561062857600080fd5b506103386106373660046118aa565b610ec6565b34801561064857600080fd5b506103386106573660046118aa565b611066565b34801561066857600080fd5b506103386106773660046118aa565b611090565b34801561068857600080fd5b506103386106973660046118aa565b6110ce565b3480156106a857600080fd5b50600d54610390906001600160a01b031681565b600280546106c990611acb565b80601f01602080910402602001604051908101604052809291908181526020018280546106f590611acb565b80156107425780601f1061071757610100808354040283529160200191610742565b820191906000526020600020905b81548152906001019060200180831161072557829003601f168201915b505050505081565b6107526110f8565b600680546001600160a01b0319166001600160a01b0392909216919091179055565b336000908152600f602052604090206002015460ff166107c85760405162461bcd60e51b815260206004820152600a6024820152692737ba1036b2b6b132b960b11b60448201526064015b60405180910390fd5b336000908152600f602052604090206003015461025811156108225760405162461bcd60e51b8152602060048201526013602482015272125b9cdd59999a58da595b9d0818dc99591a5d606a1b60448201526064016107bf565b60085460405163505c416f60e11b8152600481019190915233602482015260448101849052606481018390526001600160a01b0382169063a0b882de90608401600060405180830381600087803b15801561087c57600080fd5b505af1158015610890573d6000803e3d6000fd5b5050336000908152600f602052604081206003018054603294509092506108b8908490611b1b565b9091555050505050565b6108ca6110f8565b6108d46000611125565b565b6108de6110f8565b6001600160a01b0382166000818152600c6020908152604091829020805460ff191685151590811790915591519182527f4bfe73d0715483be6f6ce2240a8c3fc182a834e4218f07edc1a3e83d4afa1a8d910160405180910390a25050565b6109456110f8565b600e55565b6109526110f8565b600780546001600160a01b0319166001600160a01b0392909216919091179055565b606060108054806020026020016040519081016040528092919081815260200182805480156109cc57602002820191906000526020600020905b81546001600160a01b031681526001909101906020018083116109ae575b5050505050905090565b6040516bffffffffffffffffffffffff19606085901b1660208201526000908190603401604051602081830303815290604052805190602001209050610a5384848080602002602001604051908101604052809392919081815260200183836020028082843760009201919091525050600e549150849050611175565b95945050505050565b60108181548110610a6c57600080fd5b6000918252602090912001546001600160a01b0316905081565b610a8e6110f8565b6001600160a01b0381166000908152600f602052604090206002015460ff1615610aeb5760405162461bcd60e51b815260206004820152600e60248201526d20b63932b0b23c9036b2b6b132b960911b60448201526064016107bf565b604080516080810182526000808252602080830182815260018486018181526101f4606087019081526001600160a01b03898116808852600f90965288872097518855935187840155905160028701805460ff1916911515919091179055516003909501949094556010805494850181559092527f1b6847dc741a1b0cd08d278845f9d819d87b734759afb55fe2de5cb82a9ae67290920180546001600160a01b03191683179055600854925163f3dc52ab60e01b8152600481019390935260248301919091527f0000000000000000000000000000000000000000000000000000000000000000169063f3dc52ab90604401600060405180830381600087803b158015610bf857600080fd5b505af1158015610c0c573d6000803e3d6000fd5b50506040516001600160a01b03841692507fb251eb052afc73ffd02ffe85ad79990a8b3fed60d76dbc2fa2fdd7123dffd9149150600090a250565b610c4f6110f8565b60085415610c975760405162461bcd60e51b815260206004820152601560248201527410da5c98db1948125108185b1c9958591e481cd95d605a1b60448201526064016107bf565b600855565b610ca461118b565b6003543414610cf55760405162461bcd60e51b815260206004820152601b60248201527f496e76616c696420636f6e747269627574696f6e20616d6f756e74000000000060448201526064016107bf565b610cfe336111b5565b6108d460018055565b610d0f61118b565b336000908152600c602052604090205460ff16610d665760405162461bcd60e51b81526020600482015260156024820152742ab730baba3437b934bd32b21037b832b930ba37b960591b60448201526064016107bf565b600354600090610d77908390611b2e565b600b54909150600090610d8b908490611b2e565b9050610d978183611b45565b341015610ddb5760405162461bcd60e51b8152602060048201526012602482015271496e73756666696369656e742066756e647360701b60448201526064016107bf565b60005b83811015610e2757610e15858583818110610dfb57610dfb611b58565b9050602002016020810190610e1091906118aa565b6111b5565b80610e1f81611b6e565b915050610dde565b50610e328183611b45565b341115610e7c57336108fc82610e488534611b1b565b610e529190611b1b565b6040518115909202916000818181858888f19350505050158015610e7a573d6000803e3d6000fd5b505b604080518481526020810184905233917ff12460a980232f2232f874fdc7b29c3e26bc21316591031b39e9e84b316bad25910160405180910390a25050610ec260018055565b5050565b610ece6110f8565b60105415610f2a5760405162461bcd60e51b8152602060048201526024808201527f496e697469616c2063726561746f722063616e206f6e6c7920626520736574206044820152636f6e636560e01b60648201526084016107bf565b6001600160a01b0381166000908152600f602052604090206002015460ff1615610f965760405162461bcd60e51b815260206004820152601b60248201527f43726561746f7220697320616c72656164792061206d656d626572000000000060448201526064016107bf565b604080516080810182526000808252602080830182815260018486018181526101f4606087019081526001600160a01b038916808752600f909552878620965187559251868301555160028601805460ff1916911515919091179055905160039094019390935560108054938401815582527f1b6847dc741a1b0cd08d278845f9d819d87b734759afb55fe2de5cb82a9ae67290920180546001600160a01b03191683179055915190917fb251eb052afc73ffd02ffe85ad79990a8b3fed60d76dbc2fa2fdd7123dffd91491a250565b61106e6110f8565b600a80546001600160a01b0319166001600160a01b0392909216919091179055565b6110986110f8565b6001600160a01b0381166110c257604051631e4fbdf760e01b8152600060048201526024016107bf565b6110cb81611125565b50565b6110d66110f8565b600d80546001600160a01b0319166001600160a01b0392909216919091179055565b6000546001600160a01b031633146108d45760405163118cdaa760e01b81523360048201526024016107bf565b600080546001600160a01b038381166001600160a01b0319831681178455604051919092169283917f8be0079c531659141344cd1fd0a4f28419497f9722a3daafe3b4186f6b6457e09190a35050565b600082611182858461180d565b14949350505050565b6002600154036111ae57604051633ee5aeb560e01b815260040160405180910390fd5b6002600155565b6001600160a01b0381166000908152600f602052604090206002015460ff1661120f5760405162461bcd60e51b815260206004820152600c60248201526b2737ba10309036b2b6b132b960a11b60448201526064016107bf565b6001600160a01b0381166000908152600f6020526040902054156112a557600260045461123c9190611b87565b6001600160a01b0382166000908152600f602052604090205461125f9190611b45565b42116112a55760405162461bcd60e51b815260206004820152601560248201527421b7b73a3934b13aba34b7b7103a37b79039b7b7b760591b60448201526064016107bf565b60055460405163a19f88e360e01b81524260048201526000916001600160a01b03169063a19f88e3906024016020604051808303816000875af11580156112f0573d6000803e3d6000fd5b505050506040513d601f19601f820116820180604052508101906113149190611ba9565b90506000612710606460035461132a9190611b2e565b6113349190611b87565b90506000816003546113469190611b1b565b9050806009600082825461135a9190611b45565b90915550506001600160a01b0384166000908152600f60205260408120428155600101805483929061138d908490611b45565b90915550506001600160a01b0384166000908152600f6020526040902060030154610352906113bd90600a611b45565b116113ee576001600160a01b0384166000908152600f60205260409020600301546113e990600a611b45565b6113f2565b6103525b6001600160a01b0385166000908152600f602052604090206003015581156114af57600a546040516000916001600160a01b03169084908381818185875af1925050503d8060008114611461576040519150601f19603f3d011682016040523d82523d6000602084013e611466565b606091505b50509050806114ad5760405162461bcd60e51b8152602060048201526013602482015272119959481d1c985b9cd9995c8819985a5b1959606a1b60448201526064016107bf565b505b6006546000906001600160a01b031615611536576006546040516305409f3360e01b81526001600160a01b038781166004830152909116906305409f33906024016020604051808303816000875af115801561150f573d6000803e3d6000fd5b505050506040513d601f19601f820116820180604052508101906115339190611ba9565b90505b6007546001600160a01b03161561165a576001600160a01b0385166000908152600f60205260409020600101546601c6bf52634000116115e1576007546008546040516227753160e31b815260048101919091526001600160a01b038781166024830152600260448301529091169063013ba98890606401600060405180830381600087803b1580156115c857600080fd5b505af11580156115dc573d6000803e3d6000fd5b505050505b6007811061165a576007546008546040516227753160e31b815260048101919091526001600160a01b038781166024830152600160448301529091169063013ba98890606401600060405180830381600087803b15801561164157600080fd5b505af1158015611655573d6000803e3d6000fd5b505050505b600d546001600160a01b0316156116e6576000600354600a61167c9190611b2e565b600d546040516340c10f1960e01b81526001600160a01b038981166004830152602482018490529293509116906340c10f1990604401600060405180830381600087803b1580156116cc57600080fd5b505af11580156116e0573d6000803e3d6000fd5b50505050505b60085460405163580ee13760e11b81526004810191909152602481018390527f00000000000000000000000000000000000000000000000000000000000000006001600160a01b03169063b01dc26e90604401600060405180830381600087803b15801561175357600080fd5b505af1158015611767573d6000803e3d6000fd5b5050604080518581524260208201529081018790526001600160a01b03881692507fbe446d8cd0c11cac7c17817d3cc2a18d11008ab0c439d03564c978df97805728915060600160405180910390a26001600160a01b0385166000818152600f60209081526040918290206003015491519182527f79c012a0cfae660e09134956bc432c8497ec80e86a3a108d130e8b3fca52b3ad910160405180910390a25050505050565b600081815b84518110156118525761183e8286838151811061183157611831611b58565b602002602001015161185c565b91508061184a81611b6e565b915050611812565b5090505b92915050565b6000818310611878576000828152602084905260409020611887565b60008381526020839052604090205b9392505050565b80356001600160a01b03811681146118a557600080fd5b919050565b6000602082840312156118bc57600080fd5b6118878261188e565b600060208083528351808285015260005b818110156118f2578581018301518582016040015282016118d6565b506000604082860101526040601f19601f8301168501019250505092915050565b60008060006060848603121561192857600080fd5b833592506020840135915061193f6040850161188e565b90509250925092565b6000806040838503121561195b57600080fd5b6119648361188e565b91506020830135801515811461197957600080fd5b809150509250929050565b60006020828403121561199657600080fd5b5035919050565b6020808252825182820181905260009190848201906040850190845b818110156119de5783516001600160a01b0316835292840192918401916001016119b9565b50909695505050505050565b60008083601f8401126119fc57600080fd5b50813567ffffffffffffffff811115611a1457600080fd5b6020830191508360208260051b8501011115611a2f57600080fd5b9250929050565b600080600060408486031215611a4b57600080fd5b611a548461188e565b9250602084013567ffffffffffffffff811115611a7057600080fd5b611a7c868287016119ea565b9497909650939450505050565b60008060208385031215611a9c57600080fd5b823567ffffffffffffffff811115611ab357600080fd5b611abf858286016119ea565b90969095509350505050565b600181811c90821680611adf57607f821691505b602082108103611aff57634e487b7160e01b600052602260045260246000fd5b50919050565b634e487b7160e01b600052601160045260246000fd5b8181038181111561185657611856611b05565b808202811582820484141761185657611856611b05565b8082018082111561185657611856611b05565b634e487b7160e01b600052603260045260246000fd5b600060018201611b8057611b80611b05565b5060010190565b600082611ba457634e487b7160e01b600052601260045260246000fd5b500490565b600060208284031215611bbb57600080fd5b505191905056fea26469706673582212203a59c8e6521d0080336b6435733d21ec091ab45f17b32bfb0dd4bfb39e4e17e764736f6c6343000814003360806040526203f48060035534801561001757600080fd5b50604051620012de380380620012de83398101604081905261003891610103565b816001600160a01b03811661006757604051631e4fbdf760e01b81526000600482015260240160405180910390fd5b61007081610097565b50600480546001600160a01b0319166001600160a01b039290921691909117905550610136565b600080546001600160a01b038381166001600160a01b0319831681178455604051919092169283917f8be0079c531659141344cd1fd0a4f28419497f9722a3daafe3b4186f6b6457e09190a35050565b80516001600160a01b03811681146100fe57600080fd5b919050565b6000806040838503121561011657600080fd5b61011f836100e7565b915061012d602084016100e7565b90509250929050565b61119880620001466000396000f3fe608060405234801561001057600080fd5b50600436106101005760003560e01c806398c3c82211610097578063c9d27afe11610066578063c9d27afe146101fc578063da35c6641461020f578063df1183db14610218578063f2fde38b1461022b57600080fd5b806398c3c822146101ba578063c30db746146101cd578063c45a0155146101d6578063c7f758a8146101e957600080fd5b80636680b620116100d35780636680b6201461016e578063715018a61461019957806379ba5097146101a15780638da5cb5b146101a957600080fd5b8063013cf08b1461010557806302a251a3146101385780630d61b5191461014f57806337f135d714610164575b600080fd5b610118610113366004610c8a565b61023e565b60405161012f9b9a99989796959493929190610d21565b60405180910390f35b61014160035481565b60405190815260200161012f565b61016261015d366004610c8a565b6103b8565b005b6101416201518081565b600554610181906001600160a01b031681565b6040516001600160a01b03909116815260200161012f565b6101626105d6565b6101626105ea565b6000546001600160a01b0316610181565b6101626101c8366004610e64565b6105f3565b61014160065481565b600454610181906001600160a01b031681565b6101186101f7366004610c8a565b6107a8565b61016261020a366004610f07565b610965565b61014160015481565b610162610226366004610f37565b610b50565b610162610239366004610f63565b610bcf565b6002602081905260009182526040909120805460018201549282018054919360ff16929161026b90610f85565b80601f016020809104026020016040519081016040528092919081815260200182805461029790610f85565b80156102e45780601f106102b9576101008083540402835291602001916102e4565b820191906000526020600020905b8154815290600101906020018083116102c757829003601f168201915b5050505050908060030180546102f990610f85565b80601f016020809104026020016040519081016040528092919081815260200182805461032590610f85565b80156103725780601f1061034757610100808354040283529160200191610372565b820191906000526020600020905b81548152906001019060200180831161035557829003601f168201915b505050600484015460058501546006860154600787015460088801546009890154600a90990154979894976001600160a01b039485169750929093169450929060ff168b565b6103c0610c0d565b6000818152600260205260409020600781015442116104175760405162461bcd60e51b815260206004820152600e60248201526d566f74696e67206f6e676f696e6760901b60448201526064015b60405180910390fd5b62015180816007015461042a9190610fd5565b421161046a5760405162461bcd60e51b815260206004820152600f60248201526e54696d656c6f636b2061637469766560881b604482015260640161040e565b600a81015460ff16156104b25760405162461bcd60e51b815260206004820152601060248201526f105b1c9958591e48195e1958dd5d195960821b604482015260640161040e565b600a8101805460ff1916600117905560098101546008820154118015610597576005546001600160a01b03166105215760405162461bcd60e51b815260206004820152601460248201527310985919d9481cde5cdd195b481b9bdd081cd95d60621b604482015260640161040e565b60055460068054908401546040516227753160e31b815260048101929092526001600160a01b039081166024830152600360448301529091169063013ba98890606401600060405180830381600087803b15801561057e57600080fd5b505af1158015610592573d6000803e3d6000fd5b505050505b6040805184815282151560208201527f948f4a9cd986f1118c3fbd459f7a22b23c0693e1ca3ef06a6a8be5aa7d39cc03910160405180910390a1505050565b6105de610c0d565b6105e86000610c3a565b565b6105e833610c3a565b6004805460065460405163f2f3820b60e01b8152928301523360248301526001600160a01b03169063f2f3820b90604401602060405180830381865afa158015610641573d6000803e3d6000fd5b505050506040513d601f19601f820116820180604052508101906106659190610fee565b6106a75760405162461bcd60e51b81526020600482015260136024820152722737ba10309031b4b931b6329036b2b6b132b960691b604482015260640161040e565b600180549060006106b78361100b565b9091555050600180546000818152600260208190526040909120918255818301805492938993919260ff199092169184908111156106f7576106f7610ca3565b02179055506002810161070a8682611073565b50600381016107198582611073565b50600481018390556005810180546001600160a01b0384166001600160a01b0319918216179091556006820180549091163317905560035461075b9042610fd5565b600782015560015460405133917f8356bc5007056a642094f44da4e8e22469db3e8a36b5811c0f91f735f1491c799161079891908a908a90611133565b60405180910390a2505050505050565b6000818152600260208190526040822080546001820154600483015460058401546006850154600786015460088701546009880154600a89015499890180548c9b60609b8c9b8e9b8c9b8c9b8c9b8c9b8c9b8c9b979a969960ff96871699979860038d019896976001600160a01b039687169795909616959394929390921690899061083390610f85565b80601f016020809104026020016040519081016040528092919081815260200182805461085f90610f85565b80156108ac5780601f10610881576101008083540402835291602001916108ac565b820191906000526020600020905b81548152906001019060200180831161088f57829003601f168201915b505050505098508780546108bf90610f85565b80601f01602080910402602001604051908101604052809291908181526020018280546108eb90610f85565b80156109385780601f1061090d57610100808354040283529160200191610938565b820191906000526020600020905b81548152906001019060200180831161091b57829003601f168201915b505050505097509b509b509b509b509b509b509b509b509b509b509b505091939597999b90929496989a50565b600082815260026020526040902060078101544211156109b65760405162461bcd60e51b815260206004820152600c60248201526b159bdd1a5b99c8195b99195960a21b604482015260640161040e565b336000908152600b8201602052604090205460ff1615610a085760405162461bcd60e51b815260206004820152600d60248201526c105b1c9958591e481d9bdd1959609a1b604482015260640161040e565b6004805460065460405163f2f3820b60e01b8152928301523360248301526001600160a01b03169063f2f3820b90604401602060405180830381865afa158015610a56573d6000803e3d6000fd5b505050506040513d601f19601f82011682018060405250810190610a7a9190610fee565b610abc5760405162461bcd60e51b81526020600482015260136024820152722737ba10309031b4b931b6329036b2b6b132b960691b604482015260640161040e565b336000908152600b820160205260409020805460ff191660011790558115610afa57600881018054906000610af08361100b565b9190505550610b12565b600981018054906000610b0c8361100b565b91905055505b6040518215158152339084907ff2913dbe661ee2acc4a046d8fbcdc792373bda34c41c6086484b5345e5785e5f9060200160405180910390a3505050565b610b58610c0d565b60065415610ba85760405162461bcd60e51b815260206004820152601860248201527f446570656e64656e6369657320616c7265616479207365740000000000000000604482015260640161040e565b600691909155600580546001600160a01b0319166001600160a01b03909216919091179055565b610bd7610c0d565b6001600160a01b038116610c0157604051631e4fbdf760e01b81526000600482015260240161040e565b610c0a81610c3a565b50565b6000546001600160a01b031633146105e85760405163118cdaa760e01b815233600482015260240161040e565b600080546001600160a01b038381166001600160a01b0319831681178455604051919092169283917f8be0079c531659141344cd1fd0a4f28419497f9722a3daafe3b4186f6b6457e09190a35050565b600060208284031215610c9c57600080fd5b5035919050565b634e487b7160e01b600052602160045260246000fd5b60038110610cd757634e487b7160e01b600052602160045260246000fd5b9052565b6000815180845260005b81811015610d0157602081850181015186830182015201610ce5565b506000602082860101526020601f19601f83011685010191505092915050565b60006101608d8352610d36602084018e610cb9565b806040840152610d488184018d610cdb565b90508281036060840152610d5c818c610cdb565b608084019a909a5250506001600160a01b0396871660a08201529490951660c085015260e084019290925261010083015261012082015290151561014090910152949350505050565b634e487b7160e01b600052604160045260246000fd5b600082601f830112610dcc57600080fd5b813567ffffffffffffffff80821115610de757610de7610da5565b604051601f8301601f19908116603f01168101908282118183101715610e0f57610e0f610da5565b81604052838152866020858801011115610e2857600080fd5b836020870160208301376000602085830101528094505050505092915050565b80356001600160a01b0381168114610e5f57600080fd5b919050565b600080600080600060a08688031215610e7c57600080fd5b853560038110610e8b57600080fd5b9450602086013567ffffffffffffffff80821115610ea857600080fd5b610eb489838a01610dbb565b95506040880135915080821115610eca57600080fd5b50610ed788828901610dbb565b93505060608601359150610eed60808701610e48565b90509295509295909350565b8015158114610c0a57600080fd5b60008060408385031215610f1a57600080fd5b823591506020830135610f2c81610ef9565b809150509250929050565b60008060408385031215610f4a57600080fd5b82359150610f5a60208401610e48565b90509250929050565b600060208284031215610f7557600080fd5b610f7e82610e48565b9392505050565b600181811c90821680610f9957607f821691505b602082108103610fb957634e487b7160e01b600052602260045260246000fd5b50919050565b634e487b7160e01b600052601160045260246000fd5b80820180821115610fe857610fe8610fbf565b92915050565b60006020828403121561100057600080fd5b8151610f7e81610ef9565b60006001820161101d5761101d610fbf565b5060010190565b601f82111561106e57600081815260208120601f850160051c8101602086101561104b5750805b601f850160051c820191505b8181101561106a57828155600101611057565b5050505b505050565b815167ffffffffffffffff81111561108d5761108d610da5565b6110a18161109b8454610f85565b84611024565b602080601f8311600181146110d657600084156110be5750858301515b600019600386901b1c1916600185901b17855561106a565b600085815260208120601f198616915b82811015611105578886015182559484019460019091019084016110e6565b50858210156111235787850151600019600388901b60f8161c191681555b5050505050600190811b01905550565b8381526111436020820184610cb9565b6060604082015260006111596060830184610cdb565b9594505050505056fea2646970667358221220d4e944a063eec56b9946737200a988b60ce6d7d47940f4d6695b360194a1ffa764736f6c63430008140033608060405234801561001057600080fd5b50338061003757604051631e4fbdf760e01b81526000600482015260240160405180910390fd5b61004081610056565b50600180546001600160a01b03191690556100a6565b600080546001600160a01b038381166001600160a01b0319831681178455604051919092169283917f8be0079c531659141344cd1fd0a4f28419497f9722a3daafe3b4186f6b6457e09190a35050565b610cac806100b56000396000f3fe608060405234801561001057600080fd5b506004361061010b5760003560e01c80638ba00793116100a2578063c45a015511610071578063c45a015514610257578063c9d4623f1461026a578063d1a50ff71461027d578063ecf5e4aa14610290578063f2fde38b146102a357600080fd5b80638ba00793146102175780638da5cb5b1461022a57806394e167d31461023b578063c30db7461461024e57600080fd5b80636680b620116100de5780636680b6201461019f578063715018a6146101b257806379fd9365146101ba5780637b5d25341461020457600080fd5b806305409f33146101105780630e830e49146101365780632f1a6a7b1461014b5780635a58de2f1461018c575b600080fd5b61012361011e366004610a5d565b6102b6565b6040519081526020015b60405180910390f35b610149610144366004610a5d565b61032c565b005b610174610159366004610a81565b6007602052600090815260409020546001600160a01b031681565b6040516001600160a01b03909116815260200161012d565b61014961019a366004610a5d565b6103fd565b600454610174906001600160a01b031681565b610149610427565b6101e96101c8366004610a5d565b60066020526000908152604090208054600182015460029092015490919083565b6040805193845260208401929092529082015260600161012d565b600154610174906001600160a01b031681565b610149610225366004610a5d565b61043b565b6000546001600160a01b0316610174565b610149610249366004610a9a565b61048e565b61012360055481565b600354610174906001600160a01b031681565b600254610174906001600160a01b031681565b61014961028b366004610a81565b610688565b61014961029e366004610add565b6106b5565b6101496102b1366004610a5d565b61072c565b6002546000906001600160a01b031633146103075760405162461bcd60e51b815260206004820152600c60248201526b155b985d5d1a1bdc9a5e995960a21b60448201526064015b60405180910390fd5b6103108261076a565b506001600160a01b031660009081526006602052604090205490565b6103346109cb565b6002546001600160a01b03161561035d5760405162461bcd60e51b81526004016102fe90610b09565b600280546001600160a01b0319166001600160a01b0383169081179091556040805163c45a015560e01b8152905163c45a0155916004808201926020929091908290030181865afa1580156103b6573d6000803e3d6000fd5b505050506040513d601f19601f820116820180604052508101906103da9190610b2e565b600380546001600160a01b0319166001600160a01b039290921691909117905550565b6104056109cb565b600180546001600160a01b0319166001600160a01b0392909216919091179055565b61042f6109cb565b61043960006109f8565b565b6104436109cb565b6004546001600160a01b03161561046c5760405162461bcd60e51b81526004016102fe90610b09565b600480546001600160a01b0319166001600160a01b0392909216919091179055565b6040805160c0810182528235815260208084013581830152818301869052600060608084018290526002548551911b6bffffffffffffffffffffffff1916818401528451808203601401815260349091018552805192019190912060808301528251610100808201909452909260a08084019291908601906008908390839080828437600092019190915250505090526001546040516308ade83160e31b81529192506001600160a01b03169063456f4188906105519086908590600401610b4b565b602060405180830381865afa15801561056e573d6000803e3d6000fd5b505050506040513d601f19601f820116820180604052508101906105929190610bba565b6105ce5760405162461bcd60e51b815260206004820152600d60248201526c24b73b30b634b210383937b7b360991b60448201526064016102fe565b6000848152600760205260409020546001600160a01b0316806106275760405162461bcd60e51b81526020600482015260116024820152702ab735b737bbb710373ab63634b334b2b960791b60448201526064016102fe565b6106308161076a565b6001600160a01b038116600090815260066020908152604091829020548251888152918201527f8e08e0be3250e61f8e71271c64b342c9c6d09821296f04643b92c266d40954c5910160405180910390a15050505050565b6106906109cb565b600554156106b05760405162461bcd60e51b81526004016102fe90610b09565b600555565b6002546001600160a01b031633146106fe5760405162461bcd60e51b815260206004820152600c60248201526b155b985d5d1a1bdc9a5e995960a21b60448201526064016102fe565b600090815260076020526040902080546001600160a01b0319166001600160a01b0392909216919091179055565b6107346109cb565b6001600160a01b03811661075e57604051631e4fbdf760e01b8152600060048201526024016102fe565b610767816109f8565b50565b6001600160a01b0380821660009081526006602090815260408083206002548251631753fac160e01b8152925191951692631753fac192600480820193918290030181865afa1580156107c1573d6000803e3d6000fd5b505050506040513d601f19601f820116820180604052508101906107e59190610bdc565b90506107f2816002610c0b565b82600201546108019190610c28565b4211156108115760018255610865565b8082600201546108219190610c28565b42111561084057815482600061083683610c3b565b9190505550610865565b61084b600282610c54565b826002015461085a9190610c28565b421161086557600182555b6001820154825411156108f457815460018301556003546001600160a01b0316156108f457600354600554835460405163f59eb02d60e01b8152600481019290925260248201526001600160a01b039091169063f59eb02d90604401600060405180830381600087803b1580156108db57600080fd5b505af11580156108ef573d6000803e3d6000fd5b505050505b8154600714801561090f57506004546001600160a01b031615155b1561098057600480546005546040516227753160e31b8152928301526001600160a01b03858116602484015260016044840152169063013ba98890606401600060405180830381600087803b15801561096757600080fd5b505af115801561097b573d6000803e3d6000fd5b505050505b42600283015581546040519081526001600160a01b038416907f46f6fe577ecfefe55b0f14f0b42ddb4c22db1fb9bade43aa02c5ef4e5439512e9060200160405180910390a2505050565b6000546001600160a01b031633146104395760405163118cdaa760e01b81523360048201526024016102fe565b600080546001600160a01b038381166001600160a01b0319831681178455604051919092169283917f8be0079c531659141344cd1fd0a4f28419497f9722a3daafe3b4186f6b6457e09190a35050565b6001600160a01b038116811461076757600080fd5b600060208284031215610a6f57600080fd5b8135610a7a81610a48565b9392505050565b600060208284031215610a9357600080fd5b5035919050565b60008060008385036101e0811215610ab157600080fd5b84359350602085013592506101a0603f1982011215610acf57600080fd5b506040840190509250925092565b60008060408385031215610af057600080fd5b8235610afb81610a48565b946020939093013593505050565b6020808252600b908201526a105b1c9958591e481cd95d60aa1b604082015260600190565b600060208284031215610b4057600080fd5b8151610a7a81610a48565b60006101c08201905083825260208351818401528084015160408401526040840151606084015260608401516080840152608084015160a084015260a084015160c0840160005b6008811015610baf57825182529183019190830190600101610b92565b505050509392505050565b600060208284031215610bcc57600080fd5b81518015158114610a7a57600080fd5b600060208284031215610bee57600080fd5b5051919050565b634e487b7160e01b600052601160045260246000fd5b8082028115828204841417610c2257610c22610bf5565b92915050565b80820180821115610c2257610c22610bf5565b600060018201610c4d57610c4d610bf5565b5060010190565b600082610c7157634e487b7160e01b600052601260045260246000fd5b50049056fea2646970667358221220cba818ce06e9df69b37ab3da3565084cac50adc14f2f0077277c14bb82878ee764736f6c63430008140033a264697066735822122041da114514253b4ad0b29460f285718f4edcbe33b5be17afe4b984af3708b20064736f6c63430008140033",
  "linkReferences": {},
  "deployedLinkReferences": {}
}