{
  "_format": "hh-sol-artifact-1",
  "contractName": "CircleDeployer",
  "sourceName": "contracts/CircleDeployer.sol",
  "abi": [
    {
      "inputs": [
        {
          "internalType": "address",
          "name": "_factoryAddress",
          "type": "address"
        },
        {
          "internalType": "address",
          "name": "_btcOracleAddress",
          "type": "address"
        },
        {
          "internalType": "address",
          "name": "_treasuryAddress",
          "type": "address"
        }
      ],
      "stateMutability": "nonpayable",
      "type": "constructor"
    },
    {
      "inputs": [],
      "name": "btcOracleAddress",
      "outputs": [
        {
          "internalType": "address",
          "name": "",
          "type": "address"
        }
      ],
      "stateMutability": "view",
      "type": "function"
    },
    {
      "inputs": [
        {
          "internalType": "string",
          "name": "name",
          "type": "string"
        },
        {
          "internalType": "uint256",
          "name": "goal",
          "type": "uint256"
        },
        {
          "internalType": "uint256",
          "name": "contributionAmount",
          "type": "uint256"
        },
        {
          "internalType": "uint256",
          "name": "contributionPeriod",
          "type": "uint256"
        },
        {
          "internalType": "address",
          "name": "circleOwner",
          "type": "address"
        },
        {
          "internalType": "bool",
          "name": "isPremium",
          "type": "bool"
        }
      ],
      "name": "deployAndRegisterCircle",
      "outputs": [],
      "stateMutability": "payable",
      "type": "function"
    },
    {
      "inputs": [],
      "name": "factoryAddress",
      "outputs": [
        {
          "internalType": "address",
          "name": "",
          "type": "address"
        }
      ],
      "stateMutability": "view",
      "type": "function"
    },
    {
      "inputs": [],
      "name": "treasuryAddress",
      "outputs": [
        {
          "internalType": "address",
          "name": "",
          "type": "address"
        }
      ],
      "stateMutability": "view",
      "type": "function"
    }
  ],
  "bytecode": "0x60e060405234801561001057600080fd5b506040516145f93803806145f983398101604081905261002f91610068565b6001600160a01b0392831660805290821660a0521660c0526100ab565b80516001600160a01b038116811461006357600080fd5b919050565b60008060006060848603121561007d57600080fd5b6100868461004c565b92506100946020850161004c565b91506100a26040850161004c565b90509250925092565b60805160a05160c0516144f16101086000396000818160fe015261018a015260008181605d015261014801526000818160c801528181610169015281816101ed0152818161028501528181610510015261058d01526144f16000f3fe608060405260043610620000445760003560e01c8063532a82ee146200004957806386616529146200009b578063966dae0e14620000b4578063c5f956af14620000ea575b600080fd5b3480156200005657600080fd5b506200007f7f000000000000000000000000000000000000000000000000000000000000000081565b6040516001600160a01b03909116815260200160405180910390f35b620000b2620000ac36600462000670565b62000120565b005b348015620000c157600080fd5b506200007f7f000000000000000000000000000000000000000000000000000000000000000081565b348015620000f757600080fd5b506200007f7f000000000000000000000000000000000000000000000000000000000000000081565b60008660405160200162000135919062000792565b60405160208183030381529060405285857f00000000000000000000000000000000000000000000000000000000000000007f00000000000000000000000000000000000000000000000000000000000000007f0000000000000000000000000000000000000000000000000000000000000000604051620001b79062000602565b620001c896959493929190620007ed565b604051809103906000f080158015620001e5573d6000803e3d6000fd5b5090506000837f00000000000000000000000000000000000000000000000000000000000000006040516200021a9062000610565b6001600160a01b03928316815291166020820152604001604051809103906000f0801580156200024e573d6000803e3d6000fd5b509050600060405162000261906200061e565b604051809103906000f0801580156200027e573d6000803e3d6000fd5b50905060007f000000000000000000000000000000000000000000000000000000000000000090506000816001600160a01b031663a537ee41348d8d89888a8e8e6040518963ffffffff1660e01b8152600401620002e3979695949392919062000837565b60206040518083038185885af115801562000302573d6000803e3d6000fd5b50505050506040513d601f19601f820116820180604052508101906200032991906200088b565b60405163d1a50ff760e01b8152600481018290529091506001600160a01b0386169063d1a50ff790602401600060405180830381600087803b1580156200036f57600080fd5b505af115801562000384573d6000803e3d6000fd5b505060405163760f1cb760e11b81526001600160a01b038a811660048301528816925063ec1e396e9150602401600060405180830381600087803b158015620003cc57600080fd5b505af1158015620003e1573d6000803e3d6000fd5b5050604051630e8ca5ab60e11b81526001600160a01b03868116600483015288169250631d194b569150602401600060405180830381600087803b1580156200042957600080fd5b505af11580156200043e573d6000803e3d6000fd5b505060405163d1a50ff760e01b8152600481018490526001600160a01b038616925063d1a50ff79150602401600060405180830381600087803b1580156200048557600080fd5b505af11580156200049a573d6000803e3d6000fd5b5050604051630e830e4960e01b81526001600160a01b03888116600483015286169250630e830e499150602401600060405180830381600087803b158015620004e257600080fd5b505af1158015620004f7573d6000803e3d6000fd5b505060405163f2fde38b60e01b81526001600160a01b037f0000000000000000000000000000000000000000000000000000000000000000811660048301528816925063f2fde38b9150602401600060405180830381600087803b1580156200055f57600080fd5b505af115801562000574573d6000803e3d6000fd5b505060405163f2fde38b60e01b81526001600160a01b037f0000000000000000000000000000000000000000000000000000000000000000811660048301528616925063f2fde38b9150602401600060405180830381600087803b158015620005dc57600080fd5b505af1158015620005f1573d6000803e3d6000fd5b505050505050505050505050505050565b611fae80620008a683390190565b610f26806200285483390190565b610d42806200377a83390190565b634e487b7160e01b600052604160045260246000fd5b80356001600160a01b03811681146200065a57600080fd5b919050565b803580151581146200065a57600080fd5b60008060008060008060c087890312156200068a57600080fd5b863567ffffffffffffffff80821115620006a357600080fd5b818901915089601f830112620006b857600080fd5b813581811115620006cd57620006cd6200062c565b604051601f8201601f19908116603f01168101908382118183101715620006f857620006f86200062c565b816040528281528c60208487010111156200071257600080fd5b82602086016020830137600060208483010152809a505050505050602087013594506040870135935060608701359250620007506080880162000642565b91506200076060a088016200065f565b90509295509295509295565b60005b83811015620007895781810151838201526020016200076f565b50506000910152565b60008251620007a68184602087016200076c565b6620456e67696e6560c81b920191825250600701919050565b60008151808452620007d98160208601602086016200076c565b601f01601f19169290920160200192915050565b60c0815260006200080260c0830189620007bf565b60208301979097525060408101949094526001600160a01b03928316606085015290821660808401521660a090910152919050565b60e0815260006200084c60e083018a620007bf565b6020830198909852506001600160a01b0395861660408201529385166060850152918416608084015290921660a082015290151560c090910152919050565b6000602082840312156200089e57600080fd5b505191905056fe60a0604052655af3107a4000600a553480156200001b57600080fd5b5060405162001fae38038062001fae8339810160408190526200003e9162000148565b33806200006557604051631e4fbdf760e01b81526000600482015260240160405180910390fd5b6200007081620000c5565b5060016200007f8782620002f6565b50600294909455600392909255600480546001600160a01b039283166001600160a01b0319918216179091559181166080526009805491909316911617905550620003c2565b600080546001600160a01b038381166001600160a01b0319831681178455604051919092169283917f8be0079c531659141344cd1fd0a4f28419497f9722a3daafe3b4186f6b6457e09190a35050565b634e487b7160e01b600052604160045260246000fd5b80516001600160a01b03811681146200014357600080fd5b919050565b60008060008060008060c087890312156200016257600080fd5b86516001600160401b03808211156200017a57600080fd5b818901915089601f8301126200018f57600080fd5b815181811115620001a457620001a462000115565b604051601f8201601f19908116603f01168101908382118183101715620001cf57620001cf62000115565b81604052828152602093508c84848701011115620001ec57600080fd5b600091505b82821015620002105784820184015181830185015290830190620001f1565b6000848483010152809a505050508089015196505050604087015193506200023b606088016200012b565b92506200024b608088016200012b565b91506200025b60a088016200012b565b90509295509295509295565b600181811c908216806200027c57607f821691505b6020821081036200029d57634e487b7160e01b600052602260045260246000fd5b50919050565b601f821115620002f157600081815260208120601f850160051c81016020861015620002cc5750805b601f850160051c820191505b81811015620002ed57828155600101620002d8565b5050505b505050565b81516001600160401b0381111562000312576200031262000115565b6200032a8162000323845462000267565b84620002a3565b602080601f831160018114620003625760008415620003495750858301515b600019600386901b1c1916600185901b178555620002ed565b600085815260208120601f198616915b82811015620003935788860151825594840194600190910190840162000372565b5085821015620003b25787850151600019600388901b60f8161c191681555b5050505050600190811b01905550565b608051611bc2620003ec6000396000818161056601528181610bb701526116b60152611bc26000f3fe6080604052600436106102045760003560e01c80638ba0079311610118578063d1a50ff7116100a0578063ec1e396e1161006f578063ec1e396e1461061c578063f0f442601461063c578063f2fde38b1461065c578063f85701701461067c578063f96dae0a1461069c57600080fd5b8063d1a50ff7146105a8578063d3dd2bdf146105c8578063d7bb99ba14610601578063dad953a41461060957600080fd5b8063b307fc6d116100e7578063b307fc6d14610509578063be37822814610529578063c30db7461461053e578063c45a015514610554578063ca6d56dc1461058857600080fd5b80638ba00793146104895780638da5cb5b146104a95780639eab5253146104c7578063a03cf02b146104e957600080fd5b80633328d2be1161019b57806361d027b31161016a57806361d027b3146103f45780636680b62014610414578063715018a6146104345780637b2bc9a8146104495780637cb647591461046957600080fd5b80633328d2be1461037057806337aa8de9146103a857806337c08923146103c85780635fa0b65f146103de57600080fd5b80631753fac1116101d75780631753fac1146103025780631d194b561461031857806322385ed41461033a5780632eb4a7ab1461035a57600080fd5b806302fc778e1461020957806306fdde031461024e57806308ae4b0c146102705780630d547ecc146102de575b600080fd5b34801561021557600080fd5b5061023961022436600461184f565b600b6020526000908152604090205460ff1681565b60405190151581526020015b60405180910390f35b34801561025a57600080fd5b506102636106bc565b604051610245919061188e565b34801561027c57600080fd5b506102b861028b36600461184f565b600e6020526000908152604090208054600182015460028301546003909301549192909160ff9091169084565b604080519485526020850193909352901515918301919091526060820152608001610245565b3480156102ea57600080fd5b506102f4600a5481565b604051908152602001610245565b34801561030e57600080fd5b506102f460035481565b34801561032457600080fd5b5061033861033336600461184f565b61074a565b005b34801561034657600080fd5b506103386103553660046118c1565b610774565b34801561036657600080fd5b506102f4600d5481565b34801561037c57600080fd5b50600454610390906001600160a01b031681565b6040516001600160a01b039091168152602001610245565b3480156103b457600080fd5b50600554610390906001600160a01b031681565b3480156103d457600080fd5b506102f460085481565b3480156103ea57600080fd5b506102f460025481565b34801561040057600080fd5b50600954610390906001600160a01b031681565b34801561042057600080fd5b50600654610390906001600160a01b031681565b34801561044057600080fd5b506103386108c5565b34801561045557600080fd5b506103386104643660046118f6565b6108d9565b34801561047557600080fd5b50610338610484366004611932565b610940565b34801561049557600080fd5b506103386104a436600461184f565b61094d565b3480156104b557600080fd5b506000546001600160a01b0316610390565b3480156104d357600080fd5b506104dc610977565b604051610245919061194b565b3480156104f557600080fd5b506102396105043660046119e4565b6109d9565b34801561051557600080fd5b50610390610524366004611932565b610a5f565b34801561053557600080fd5b506102f4606481565b34801561054a57600080fd5b506102f460075481565b34801561056057600080fd5b506103907f000000000000000000000000000000000000000000000000000000000000000081565b34801561059457600080fd5b506103386105a336600461184f565b610a89565b3480156105b457600080fd5b506103386105c3366004611932565b610c4a565b3480156105d457600080fd5b506102f46105e336600461184f565b6001600160a01b03166000908152600e602052604090206003015490565b610338610c9f565b610338610617366004611a37565b610ca8565b34801561062857600080fd5b5061033861063736600461184f565b610e57565b34801561064857600080fd5b5061033861065736600461184f565b610fde565b34801561066857600080fd5b5061033861067736600461184f565b611008565b34801561068857600080fd5b5061033861069736600461184f565b611046565b3480156106a857600080fd5b50600c54610390906001600160a01b031681565b600180546106c990611a79565b80601f01602080910402602001604051908101604052809291908181526020018280546106f590611a79565b80156107425780601f1061071757610100808354040283529160200191610742565b820191906000526020600020905b81548152906001019060200180831161072557829003601f168201915b505050505081565b610752611070565b600580546001600160a01b0319166001600160a01b0392909216919091179055565b336000908152600e602052604090206002015460ff166107c85760405162461bcd60e51b815260206004820152600a6024820152692737ba1036b2b6b132b960b11b60448201526064015b60405180910390fd5b336000908152600e602052604090206003015461025811156108225760405162461bcd60e51b8152602060048201526013602482015272125b9cdd59999a58da595b9d0818dc99591a5d606a1b60448201526064016107bf565b60075460405163505c416f60e11b81526004810191909152336024820152604481018490526064810183905281906001600160a01b0382169063a0b882de90608401600060405180830381600087803b15801561087e57600080fd5b505af1158015610892573d6000803e3d6000fd5b5050336000908152600e602052604081206003018054603294509092506108ba908490611ac9565b909155505050505050565b6108cd611070565b6108d7600061109d565b565b6108e1611070565b6001600160a01b0382166000818152600b6020908152604091829020805460ff191685151590811790915591519182527f4bfe73d0715483be6f6ce2240a8c3fc182a834e4218f07edc1a3e83d4afa1a8d910160405180910390a25050565b610948611070565b600d55565b610955611070565b600680546001600160a01b0319166001600160a01b0392909216919091179055565b6060600f8054806020026020016040519081016040528092919081815260200182805480156109cf57602002820191906000526020600020905b81546001600160a01b031681526001909101906020018083116109b1575b5050505050905090565b6040516bffffffffffffffffffffffff19606085901b1660208201526000908190603401604051602081830303815290604052805190602001209050610a5684848080602002602001604051908101604052809392919081815260200183836020028082843760009201919091525050600d5491508490506110ed565b95945050505050565b600f8181548110610a6f57600080fd5b6000918252602090912001546001600160a01b0316905081565b610a91611070565b6001600160a01b0381166000908152600e602052604090206002015460ff1615610aee5760405162461bcd60e51b815260206004820152600e60248201526d20b63932b0b23c9036b2b6b132b960911b60448201526064016107bf565b604080516080810182526000808252602080830182815260018486018181526101f4606087019081526001600160a01b03898116808852600e90965288872097518855935187840155905160028701805460ff191691151591909117905551600390950194909455600f805494850181559092527f8d1108e10bcb7c27dddfc02ed9d693a074039d026cf4ea4240b40f7d581ac80290920180546001600160a01b03191683179055600754925163f3dc52ab60e01b8152600481019390935260248301919091527f0000000000000000000000000000000000000000000000000000000000000000169063f3dc52ab90604401600060405180830381600087803b158015610bfb57600080fd5b505af1158015610c0f573d6000803e3d6000fd5b50506040516001600160a01b03841692507fb251eb052afc73ffd02ffe85ad79990a8b3fed60d76dbc2fa2fdd7123dffd9149150600090a250565b610c52611070565b60075415610c9a5760405162461bcd60e51b815260206004820152601560248201527410da5c98db1948125108185b1c9958591e481cd95d605a1b60448201526064016107bf565b600755565b6108d733611103565b336000908152600b602052604090205460ff16610cff5760405162461bcd60e51b81526020600482015260156024820152742ab730baba3437b934bd32b21037b832b930ba37b960591b60448201526064016107bf565b600254600090610d10908390611adc565b600a54909150600090610d24908490611adc565b9050610d308183611af3565b341015610d745760405162461bcd60e51b8152602060048201526012602482015271496e73756666696369656e742066756e647360701b60448201526064016107bf565b60005b83811015610dc057610dae858583818110610d9457610d94611b06565b9050602002016020810190610da9919061184f565b611103565b80610db881611b1c565b915050610d77565b50610dcb8183611af3565b341115610e1557336108fc82610de18534611ac9565b610deb9190611ac9565b6040518115909202916000818181858888f19350505050158015610e13573d6000803e3d6000fd5b505b604080518481526020810184905233917ff12460a980232f2232f874fdc7b29c3e26bc21316591031b39e9e84b316bad2591015b60405180910390a250505050565b610e5f611070565b600f5415610eaf5760405162461bcd60e51b815260206004820152601b60248201527f496e697469616c2063726561746f7220616c726561647920736574000000000060448201526064016107bf565b6001600160a01b0381166000908152600e602052604090206002015460ff1615610f0e5760405162461bcd60e51b815260206004820152601060248201526f20b63932b0b23c90309036b2b6b132b960811b60448201526064016107bf565b604080516080810182526000808252602080830182815260018486018181526101f4606087019081526001600160a01b038916808752600e909552878620965187559251868301555160028601805460ff19169115159190911790559051600390940193909355600f8054938401815582527f8d1108e10bcb7c27dddfc02ed9d693a074039d026cf4ea4240b40f7d581ac80290920180546001600160a01b03191683179055915190917fb251eb052afc73ffd02ffe85ad79990a8b3fed60d76dbc2fa2fdd7123dffd91491a250565b610fe6611070565b600980546001600160a01b0319166001600160a01b0392909216919091179055565b611010611070565b6001600160a01b03811661103a57604051631e4fbdf760e01b8152600060048201526024016107bf565b6110438161109d565b50565b61104e611070565b600c80546001600160a01b0319166001600160a01b0392909216919091179055565b6000546001600160a01b031633146108d75760405163118cdaa760e01b81523360048201526024016107bf565b600080546001600160a01b038381166001600160a01b0319831681178455604051919092169283917f8be0079c531659141344cd1fd0a4f28419497f9722a3daafe3b4186f6b6457e09190a35050565b6000826110fa85846117b2565b14949350505050565b6001600160a01b0381166000908152600e602052604090206002015460ff1661115b5760405162461bcd60e51b815260206004820152600a6024820152692737ba1036b2b6b132b960b11b60448201526064016107bf565b600260035461116a9190611b35565b6001600160a01b0382166000908152600e602052604090205461118d9190611af3565b42116111d35760405162461bcd60e51b815260206004820152601560248201527421b7b73a3934b13aba34b7b7103a37b79039b7b7b760591b60448201526064016107bf565b6004805460405163a19f88e360e01b81526000926001600160a01b039092169163a19f88e3916112099142910190815260200190565b6020604051808303816000875af1158015611228573d6000803e3d6000fd5b505050506040513d601f19601f8201168201806040525081019061124c9190611b57565b9050600061271060646002546112629190611adc565b61126c9190611b35565b905060008160025461127e9190611ac9565b905080600860008282546112929190611af3565b90915550506001600160a01b0384166000908152600e6020526040812042815560010180548392906112c5908490611af3565b90915550506001600160a01b0384166000908152600e6020526040902060030154610352906112f590600a611af3565b11611326576001600160a01b0384166000908152600e602052604090206003015461132190600a611af3565b61132a565b6103525b6001600160a01b0385166000908152600e602052604090206003015581156113e7576009546040516000916001600160a01b03169084908381818185875af1925050503d8060008114611399576040519150601f19603f3d011682016040523d82523d6000602084013e61139e565b606091505b50509050806113e55760405162461bcd60e51b8152602060048201526013602482015272119959481d1c985b9cd9995c8819985a5b1959606a1b60448201526064016107bf565b505b6005546001600160a01b0316156114d7576005546040516001600160a01b038681166024830152600092169060440160408051601f198184030181529181526020820180516001600160e01b03166305409f3360e01b1790525161144b9190611b70565b6000604051808303816000865af19150503d8060008114611488576040519150601f19603f3d011682016040523d82523d6000602084013e61148d565b606091505b50509050806114d55760405162461bcd60e51b815260206004820152601460248201527314dd1c99585ac81d5c19185d194819985a5b195960621b60448201526064016107bf565b505b6006546001600160a01b03161580159061151457506001600160a01b0384166000908152600e602052604090206001015467016345785d8a000011155b156116095760065460075460405160248101919091526001600160a01b03868116604483015260026064830152600092169060840160408051601f198184030181529181526020820180516001600160e01b03166227753160e31b1790525161157d9190611b70565b6000604051808303816000865af19150503d80600081146115ba576040519150601f19603f3d011682016040523d82523d6000602084013e6115bf565b606091505b50509050806116075760405162461bcd60e51b815260206004820152601460248201527310985919d9481b5a5b9d1a5b99c819985a5b195960621b60448201526064016107bf565b505b600c546001600160a01b031615611695576000600254600a61162b9190611adc565b600c546040516340c10f1960e01b81526001600160a01b038881166004830152602482018490529293509116906340c10f1990604401600060405180830381600087803b15801561167b57600080fd5b505af115801561168f573d6000803e3d6000fd5b50505050505b60075460405163580ee13760e11b81526004810191909152602481018290527f00000000000000000000000000000000000000000000000000000000000000006001600160a01b03169063b01dc26e90604401600060405180830381600087803b15801561170257600080fd5b505af1158015611716573d6000803e3d6000fd5b5050604080518481524260208201529081018690526001600160a01b03871692507fbe446d8cd0c11cac7c17817d3cc2a18d11008ab0c439d03564c978df97805728915060600160405180910390a26001600160a01b0384166000818152600e60209081526040918290206003015491519182527f79c012a0cfae660e09134956bc432c8497ec80e86a3a108d130e8b3fca52b3ad9101610e49565b600081815b84518110156117f7576117e3828683815181106117d6576117d6611b06565b6020026020010151611801565b9150806117ef81611b1c565b9150506117b7565b5090505b92915050565b600081831061181d57600082815260208490526040902061182c565b60008381526020839052604090205b9392505050565b80356001600160a01b038116811461184a57600080fd5b919050565b60006020828403121561186157600080fd5b61182c82611833565b60005b8381101561188557818101518382015260200161186d565b50506000910152565b60208152600082518060208401526118ad81604085016020870161186a565b601f01601f19169190910160400192915050565b6000806000606084860312156118d657600080fd5b83359250602084013591506118ed60408501611833565b90509250925092565b6000806040838503121561190957600080fd5b61191283611833565b91506020830135801515811461192757600080fd5b809150509250929050565b60006020828403121561194457600080fd5b5035919050565b6020808252825182820181905260009190848201906040850190845b8181101561198c5783516001600160a01b031683529284019291840191600101611967565b50909695505050505050565b60008083601f8401126119aa57600080fd5b50813567ffffffffffffffff8111156119c257600080fd5b6020830191508360208260051b85010111156119dd57600080fd5b9250929050565b6000806000604084860312156119f957600080fd5b611a0284611833565b9250602084013567ffffffffffffffff811115611a1e57600080fd5b611a2a86828701611998565b9497909650939450505050565b60008060208385031215611a4a57600080fd5b823567ffffffffffffffff811115611a6157600080fd5b611a6d85828601611998565b90969095509350505050565b600181811c90821680611a8d57607f821691505b602082108103611aad57634e487b7160e01b600052602260045260246000fd5b50919050565b634e487b7160e01b600052601160045260246000fd5b818103818111156117fb576117fb611ab3565b80820281158282048414176117fb576117fb611ab3565b808201808211156117fb576117fb611ab3565b634e487b7160e01b600052603260045260246000fd5b600060018201611b2e57611b2e611ab3565b5060010190565b600082611b5257634e487b7160e01b600052601260045260246000fd5b500490565b600060208284031215611b6957600080fd5b5051919050565b60008251611b8281846020870161186a565b919091019291505056fea2646970667358221220e1a18d51efe55c9ee44ab82c6e3f5a6921e7dc43224a90d5ba0c1ba16017cffa64736f6c6343000814003360806040526203f48060035534801561001757600080fd5b50604051610f26380380610f2683398101604081905261003691610101565b816001600160a01b03811661006557604051631e4fbdf760e01b81526000600482015260240160405180910390fd5b61006e81610095565b50600480546001600160a01b0319166001600160a01b039290921691909117905550610134565b600080546001600160a01b038381166001600160a01b0319831681178455604051919092169283917f8be0079c531659141344cd1fd0a4f28419497f9722a3daafe3b4186f6b6457e09190a35050565b80516001600160a01b03811681146100fc57600080fd5b919050565b6000806040838503121561011457600080fd5b61011d836100e5565b915061012b602084016100e5565b90509250929050565b610de3806101436000396000f3fe608060405234801561001057600080fd5b50600436106100a95760003560e01c806398c3c8221161007157806398c3c82214610139578063c45a01551461014c578063c7f758a81461015f578063c9d27afe14610172578063da35c66414610185578063f2fde38b1461018e57600080fd5b8063013cf08b146100ae57806302a251a3146100e05780630d61b519146100f7578063715018a61461010c5780638da5cb5b14610114575b600080fd5b6100c16100bc36600461092e565b6101a1565b6040516100d79a999897969594939291906109c5565b60405180910390f35b6100e960035481565b6040519081526020016100d7565b61010a61010536600461092e565b610313565b005b61010a61041d565b6000546001600160a01b03165b6040516001600160a01b0390911681526020016100d7565b61010a610147366004610b01565b610431565b600454610121906001600160a01b031681565b6100c161016d36600461092e565b61057f565b61010a610180366004610b96565b61073c565b6100e960015481565b61010a61019c366004610bcb565b610873565b6002602081905260009182526040909120805460018201549282018054919360ff1692916101ce90610bed565b80601f01602080910402602001604051908101604052809291908181526020018280546101fa90610bed565b80156102475780601f1061021c57610100808354040283529160200191610247565b820191906000526020600020905b81548152906001019060200180831161022a57829003601f168201915b50505050509080600301805461025c90610bed565b80601f016020809104026020016040519081016040528092919081815260200182805461028890610bed565b80156102d55780601f106102aa576101008083540402835291602001916102d5565b820191906000526020600020905b8154815290600101906020018083116102b857829003601f168201915b50505060048401546005850154600686015460078701546008880154600990980154969793966001600160a01b039093169550909350919060ff168a565b61031b6108b1565b6000818152600260205260409020600681015442116103725760405162461bcd60e51b815260206004820152600e60248201526d566f74696e67206f6e676f696e6760901b60448201526064015b60405180910390fd5b600981015460ff16156103ba5760405162461bcd60e51b815260206004820152601060248201526f105b1c9958591e48195e1958dd5d195960821b6044820152606401610369565b60098101805460ff1916600117905560088101546007820154117f948f4a9cd986f1118c3fbd459f7a22b23c0693e1ca3ef06a6a8be5aa7d39cc0383826040516104109291909182521515602082015260400190565b60405180910390a1505050565b6104256108b1565b61042f60006108de565b565b6004546001600160a01b031633148061045457506000546001600160a01b031633145b6104915760405162461bcd60e51b815260206004820152600e60248201526d139bdd08185d5d1a1bdc9a5e995960921b6044820152606401610369565b600180549060006104a183610c3d565b9091555050600180546000818152600260208190526040909120918255818301805492938993919260ff199092169184908111156104e1576104e1610947565b0217905550600281016104f48682610ca5565b50600381016105038582610ca5565b50600481018390556005810180546001600160a01b0319166001600160a01b0384161790556003546105359042610d65565b60068201556001546040517f2d6a2a1a504050a1fa6107e44f49971fd89dbe544b433d65f1c572ce5fa3b7d19161056f9189908990610d7e565b60405180910390a1505050505050565b6000806060806000806000806000806000600260008d8152602001908152602001600020905080600001548160010160009054906101000a900460ff16826002018360030184600401548560050160009054906101000a90046001600160a01b03168660060154876007015488600801548960090160009054906101000a900460ff1687805461060e90610bed565b80601f016020809104026020016040519081016040528092919081815260200182805461063a90610bed565b80156106875780601f1061065c57610100808354040283529160200191610687565b820191906000526020600020905b81548152906001019060200180831161066a57829003601f168201915b5050505050975086805461069a90610bed565b80601f01602080910402602001604051908101604052809291908181526020018280546106c690610bed565b80156107135780601f106106e857610100808354040283529160200191610713565b820191906000526020600020905b8154815290600101906020018083116106f657829003601f168201915b505050505096509a509a509a509a509a509a509a509a509a509a50509193959799509193959799565b6000828152600260205260409020600681015442111561078d5760405162461bcd60e51b815260206004820152600c60248201526b159bdd1a5b99c8195b99195960a21b6044820152606401610369565b336000908152600a8201602052604090205460ff16156107df5760405162461bcd60e51b815260206004820152600d60248201526c105b1c9958591e481d9bdd1959609a1b6044820152606401610369565b336000908152600a820160205260409020805460ff19166001179055811561081d5760078101805490600061081383610c3d565b9190505550610835565b60088101805490600061082f83610c3d565b91905055505b6040518215158152339084907ff2913dbe661ee2acc4a046d8fbcdc792373bda34c41c6086484b5345e5785e5f9060200160405180910390a3505050565b61087b6108b1565b6001600160a01b0381166108a557604051631e4fbdf760e01b815260006004820152602401610369565b6108ae816108de565b50565b6000546001600160a01b0316331461042f5760405163118cdaa760e01b8152336004820152602401610369565b600080546001600160a01b038381166001600160a01b0319831681178455604051919092169283917f8be0079c531659141344cd1fd0a4f28419497f9722a3daafe3b4186f6b6457e09190a35050565b60006020828403121561094057600080fd5b5035919050565b634e487b7160e01b600052602160045260246000fd5b6003811061097b57634e487b7160e01b600052602160045260246000fd5b9052565b6000815180845260005b818110156109a557602081850181015186830182015201610989565b506000602082860101526020601f19601f83011685010191505092915050565b60006101408c83526109da602084018d61095d565b8060408401526109ec8184018c61097f565b90508281036060840152610a00818b61097f565b608084019990995250506001600160a01b039590951660a086015260c085019390935260e0840191909152610100830152151561012090910152949350505050565b634e487b7160e01b600052604160045260246000fd5b600082601f830112610a6957600080fd5b813567ffffffffffffffff80821115610a8457610a84610a42565b604051601f8301601f19908116603f01168101908282118183101715610aac57610aac610a42565b81604052838152866020858801011115610ac557600080fd5b836020870160208301376000602085830101528094505050505092915050565b80356001600160a01b0381168114610afc57600080fd5b919050565b600080600080600060a08688031215610b1957600080fd5b853560038110610b2857600080fd5b9450602086013567ffffffffffffffff80821115610b4557600080fd5b610b5189838a01610a58565b95506040880135915080821115610b6757600080fd5b50610b7488828901610a58565b93505060608601359150610b8a60808701610ae5565b90509295509295909350565b60008060408385031215610ba957600080fd5b8235915060208301358015158114610bc057600080fd5b809150509250929050565b600060208284031215610bdd57600080fd5b610be682610ae5565b9392505050565b600181811c90821680610c0157607f821691505b602082108103610c2157634e487b7160e01b600052602260045260246000fd5b50919050565b634e487b7160e01b600052601160045260246000fd5b600060018201610c4f57610c4f610c27565b5060010190565b601f821115610ca057600081815260208120601f850160051c81016020861015610c7d5750805b601f850160051c820191505b81811015610c9c57828155600101610c89565b5050505b505050565b815167ffffffffffffffff811115610cbf57610cbf610a42565b610cd381610ccd8454610bed565b84610c56565b602080601f831160018114610d085760008415610cf05750858301515b600019600386901b1c1916600185901b178555610c9c565b600085815260208120601f198616915b82811015610d3757888601518255948401946001909101908401610d18565b5085821015610d555787850151600019600388901b60f8161c191681555b5050505050600190811b01905550565b80820180821115610d7857610d78610c27565b92915050565b838152610d8e602082018461095d565b606060408201526000610da4606083018461097f565b9594505050505056fea2646970667358221220e0ee9bd4c75ba3233ad7bd961448e9a28fe966fb18488ec5e0b903032595722864736f6c63430008140033608060405234801561001057600080fd5b50338061003757604051631e4fbdf760e01b81526000600482015260240160405180910390fd5b61004081610056565b50600180546001600160a01b03191690556100a6565b600080546001600160a01b038381166001600160a01b0319831681178455604051919092169283917f8be0079c531659141344cd1fd0a4f28419497f9722a3daafe3b4186f6b6457e09190a35050565b610c8d806100b56000396000f3fe608060405234801561001057600080fd5b506004361061010b5760003560e01c80638ba00793116100a2578063c45a015511610071578063c45a015514610257578063c9d4623f1461026a578063d1a50ff71461027d578063ecf5e4aa14610290578063f2fde38b146102a357600080fd5b80638ba00793146102095780638da5cb5b1461021c57806394e167d31461022d578063c30db7461461024057600080fd5b80636680b620116100de5780636680b62014610191578063715018a6146101a457806379fd9365146101ac5780637b5d2534146101f657600080fd5b806305409f33146101105780630e830e49146101255780632f1a6a7b146101385780635a58de2f1461017e575b600080fd5b61012361011e366004610a3e565b6102b6565b005b610123610133366004610a3e565b610310565b610161610146366004610a62565b6007602052600090815260409020546001600160a01b031681565b6040516001600160a01b0390911681526020015b60405180910390f35b61012361018c366004610a3e565b6103e1565b600454610161906001600160a01b031681565b61012361040b565b6101db6101ba366004610a3e565b60066020526000908152604090208054600182015460029092015490919083565b60408051938452602084019290925290820152606001610175565b600154610161906001600160a01b031681565b610123610217366004610a3e565b61041f565b6000546001600160a01b0316610161565b61012361023b366004610a7b565b610472565b61024960055481565b604051908152602001610175565b600354610161906001600160a01b031681565b600254610161906001600160a01b031681565b61012361028b366004610a62565b61066c565b61012361029e366004610abe565b610699565b6101236102b1366004610a3e565b610710565b6002546001600160a01b031633146103045760405162461bcd60e51b815260206004820152600c60248201526b155b985d5d1a1bdc9a5e995960a21b60448201526064015b60405180910390fd5b61030d8161074b565b50565b6103186109ac565b6002546001600160a01b0316156103415760405162461bcd60e51b81526004016102fb90610aea565b600280546001600160a01b0319166001600160a01b0383169081179091556040805163c45a015560e01b8152905163c45a0155916004808201926020929091908290030181865afa15801561039a573d6000803e3d6000fd5b505050506040513d601f19601f820116820180604052508101906103be9190610b0f565b600380546001600160a01b0319166001600160a01b039290921691909117905550565b6103e96109ac565b600180546001600160a01b0319166001600160a01b0392909216919091179055565b6104136109ac565b61041d60006109d9565b565b6104276109ac565b6004546001600160a01b0316156104505760405162461bcd60e51b81526004016102fb90610aea565b600480546001600160a01b0319166001600160a01b0392909216919091179055565b6040805160c0810182528235815260208084013581830152818301869052600060608084018290526002548551911b6bffffffffffffffffffffffff1916818401528451808203601401815260349091018552805192019190912060808301528251610100808201909452909260a08084019291908601906008908390839080828437600092019190915250505090526001546040516308ade83160e31b81529192506001600160a01b03169063456f4188906105359086908590600401610b2c565b602060405180830381865afa158015610552573d6000803e3d6000fd5b505050506040513d601f19601f820116820180604052508101906105769190610b9b565b6105b25760405162461bcd60e51b815260206004820152600d60248201526c24b73b30b634b210383937b7b360991b60448201526064016102fb565b6000848152600760205260409020546001600160a01b03168061060b5760405162461bcd60e51b81526020600482015260116024820152702ab735b737bbb710373ab63634b334b2b960791b60448201526064016102fb565b6106148161074b565b6001600160a01b038116600090815260066020908152604091829020548251888152918201527f8e08e0be3250e61f8e71271c64b342c9c6d09821296f04643b92c266d40954c5910160405180910390a15050505050565b6106746109ac565b600554156106945760405162461bcd60e51b81526004016102fb90610aea565b600555565b6002546001600160a01b031633146106e25760405162461bcd60e51b815260206004820152600c60248201526b155b985d5d1a1bdc9a5e995960a21b60448201526064016102fb565b600090815260076020526040902080546001600160a01b0319166001600160a01b0392909216919091179055565b6107186109ac565b6001600160a01b03811661074257604051631e4fbdf760e01b8152600060048201526024016102fb565b61030d816109d9565b6001600160a01b0380821660009081526006602090815260408083206002548251631753fac160e01b8152925191951692631753fac192600480820193918290030181865afa1580156107a2573d6000803e3d6000fd5b505050506040513d601f19601f820116820180604052508101906107c69190610bbd565b90506107d3816002610bec565b82600201546107e29190610c09565b4211156107f25760018255610846565b8082600201546108029190610c09565b42111561082157815482600061081783610c1c565b9190505550610846565b61082c600282610c35565b826002015461083b9190610c09565b421161084657600182555b6001820154825411156108d557815460018301556003546001600160a01b0316156108d557600354600554835460405163f59eb02d60e01b8152600481019290925260248201526001600160a01b039091169063f59eb02d90604401600060405180830381600087803b1580156108bc57600080fd5b505af11580156108d0573d6000803e3d6000fd5b505050505b815460071480156108f057506004546001600160a01b031615155b1561096157600480546005546040516227753160e31b8152928301526001600160a01b03858116602484015260016044840152169063013ba98890606401600060405180830381600087803b15801561094857600080fd5b505af115801561095c573d6000803e3d6000fd5b505050505b42600283015581546040519081526001600160a01b038416907f46f6fe577ecfefe55b0f14f0b42ddb4c22db1fb9bade43aa02c5ef4e5439512e9060200160405180910390a2505050565b6000546001600160a01b0316331461041d5760405163118cdaa760e01b81523360048201526024016102fb565b600080546001600160a01b038381166001600160a01b0319831681178455604051919092169283917f8be0079c531659141344cd1fd0a4f28419497f9722a3daafe3b4186f6b6457e09190a35050565b6001600160a01b038116811461030d57600080fd5b600060208284031215610a5057600080fd5b8135610a5b81610a29565b9392505050565b600060208284031215610a7457600080fd5b5035919050565b60008060008385036101e0811215610a9257600080fd5b84359350602085013592506101a0603f1982011215610ab057600080fd5b506040840190509250925092565b60008060408385031215610ad157600080fd5b8235610adc81610a29565b946020939093013593505050565b6020808252600b908201526a105b1c9958591e481cd95d60aa1b604082015260600190565b600060208284031215610b2157600080fd5b8151610a5b81610a29565b60006101c08201905083825260208351818401528084015160408401526040840151606084015260608401516080840152608084015160a084015260a084015160c0840160005b6008811015610b9057825182529183019190830190600101610b73565b505050509392505050565b600060208284031215610bad57600080fd5b81518015158114610a5b57600080fd5b600060208284031215610bcf57600080fd5b5051919050565b634e487b7160e01b600052601160045260246000fd5b8082028115828204841417610c0357610c03610bd6565b92915050565b80820180821115610c0357610c03610bd6565b600060018201610c2e57610c2e610bd6565b5060010190565b600082610c5257634e487b7160e01b600052601260045260246000fd5b50049056fea2646970667358221220f5771c412a10094332db11aea81f49419a95de1eee3628147067b7546cb0d35164736f6c63430008140033a26469706673582212204891cdc4bdd7f4105d661ab4318cedcf9bbf61737c973a11d3a142bc27dbd5e664736f6c63430008140033",
  "linkReferences": {},
  "deployedLinkReferences": {}
}